:020000040800F2
:1000000000500020A9300008410E0008430E0008EF
:10001000450E0008470E0008490E000800000000C9
:100020000000000000000000000000004B0E00086F
:100030004D0E0008000000004F0E0008510E000891
:10004000F1300008F1300008F1300008F13000080C
:10005000F1300008F1300008F1300008F1300008FC
:10006000F1300008F1300008F1300008F1300008EC
:10007000F1300008F1300008F1300008F1300008DC
:10008000F1300008F1300008F1300008F1300008CC
:10009000F1300008F1300008F1300008F1300008BC
:1000A000F1300008F1300008F1300008F1300008AC
:1000B000590E0008690E0008F1300008F130000800
:1000C000F1300008F1300008F1300008F13000088C
:1000D000F1300008790E0008F1300008F130000816
:1000E000F1300008F1300008F13000080000000095
:1000F0000000000000000000000000000000000000
:0C01000000000000000000005FF808F1A3
:10010C0010B5054C237833B9044B13B10448AFF345
:10011C0000800123237010BDC801002000000000E6
:10012C007039000808B5034B1BB103490348AFF302
:10013C00008008BD00000000CC01002070390008D0
:10014C0081F0004102E000BF83F0004330B54FEA7C
:10015C0041044FEA430594EA050F08BF90EA020FE9
:10016C001FBF54EA000C55EA020C7FEA645C7FEA7C
:10017C00655C00F0E2804FEA5454D4EB5555B8BF9F
:10018C006D420CDD2C4480EA020281EA030382EA10
:10019C00000083EA010180EA020281EA0303362DA2
:1001AC0088BF30BD11F0004F4FEA01314FF4801C75
:1001BC004CEA113102D0404261EB410113F0004F87
:1001CC004FEA03334CEA133302D0524263EB43033E
:1001DC0094EA050F00F0A780A4F10104D5F1200EDC
:1001EC000DDB02FA0EFC22FA05F2801841F1000137
:1001FC0003FA0EF2801843FA05F359410EE0A5F10B
:10020C0020050EF1200E012A03FA0EFC28BF4CF03B
:10021C00020C43FA05F3C01851EBE37101F00045F1
:10022C0007D54FF0000EDCF1000C7EEB00006EEBFE
:10023C000101B1F5801F1BD3B1F5001F0CD3490888
:10024C005FEA30004FEA3C0C04F101044FEA4452DF
:10025C0012F5800F80F09A80BCF1004F08BF5FEA66
:10026C00500C50F1000041EB045141EA050130BD46
:10027C005FEA4C0C404141EB010111F4801FA4F1E9
:10028C000104E9D191F0000F04BF01460020B1FA3E
:10029C0081F308BF2033A3F10B03B3F120020CDA76
:1002AC000C3208DD02F1140CC2F10C0201FA0CF054
:1002BC0021FA02F10CE002F11402D8BFC2F1200CB9
:1002CC0001FA02F120FA0CFCDCBF41EA0C0190406F
:1002DC00E41AA2BF01EB0451294330BD6FEA0404B8
:1002EC001F3C1CDA0C340EDC04F11404C4F12002A3
:1002FC0020FA04F001FA02F340EA030021FA04F3B5
:10030C0045EA030130BDC4F10C04C4F1200220FA0B
:10031C0002F001FA04F340EA0300294630BD21FA49
:10032C0004F0294630BD94F0000F83F4801306BF0F
:10033C0081F480110134013D4EE77FEA645C18BF03
:10034C007FEA655C29D094EA050F08BF90EA020F9A
:10035C0005D054EA000C04BF1946104630BD91EA92
:10036C00030F1EBF0021002030BD5FEA545C05D195
:10037C004000494128BF41F0004130BD14F58004D4
:10038C003CBF01F5801130BD01F0004545F0FE4148
:10039C0041F470014FF0000030BD7FEA645C1ABF7D
:1003AC00194610467FEA655C1CBF0B46024650EAB4
:1003BC00013406BF52EA033591EA030F41F40021E0
:1003CC0030BD00BF90F0000F04BF0021704730B566
:1003DC004FF4806404F132044FF000054FF000013B
:1003EC0050E700BF90F0000F04BF0021704730B5FC
:1003FC004FF4806404F1320410F0004548BF4042D1
:10040C004FF000013EE700BF42004FEAE2014FEA25
:10041C0031014FEA02701FBF12F07F4393F07F4F00
:10042C0081F06051704732F07F4208BF704793F003
:10043C007F4F04BF41F40021704730B54FF4607416
:10044C0001F0004521F000411CE700BF50EA010219
:10045C0008BF704730B54FF000050AE050EA0102C2
:10046C0008BF704730B511F0004502D5404261EB32
:10047C0041014FF4806404F132045FEA915C3FF473
:10048C00D8AE4FF003025FEADC0C18BF03325FEA10
:10049C00DC0C18BF033202EBDC02C2F1200300FAC1
:1004AC0003FC20FA02F001FA03FE40EA0E0021FAE6
:1004BC0002F11444BDE600BF70B54FF0FF0C4CF4D4
:1004CC00E06C1CEA11541DBF1CEA135594EA0C0F86
:1004DC0095EA0C0F00F0DEF82C4481EA030621EAC1
:1004EC004C5123EA4C5350EA013518BF52EA0335FC
:1004FC0041F4801143F4801338D0A0FB02CE4FF0AE
:10050C000005E1FB02E506F00042E0FB03E54FF0DD
:10051C000006E1FB03569CF0000F18BF4EF0010ED5
:10052C00A4F1FF04B6F5007F64F5407404D25FEAD1
:10053C004E0E6D4146EB060642EAC62141EA555184
:10054C004FEAC52040EA5E504FEACE2EB4F1FD0CC6
:10055C0088BFBCF5E06F1ED8BEF1004F08BF5FEA44
:10056C00500E50F1000041EB045170BD06F00046F6
:10057C0046EA010140EA020081EA0301B4EB5C04A3
:10058C00C2BFD4EB0C0541EA045170BD41F480119B
:10059C004FF0000E013C00F3AB8014F1360FDEBFC0
:1005AC00002001F0004170BDC4F10004203C35DA9C
:1005BC000C341BDC04F11404C4F1200500FA05F31F
:1005CC0020FA04F001FA05F240EA020001F00042C0
:1005DC0021F0004110EBD37021FA04F642EB060136
:1005EC005EEA430E08BF20EAD37070BDC4F10C0460
:1005FC00C4F1200500FA04F320FA05F001FA04F224
:10060C0040EA020001F0004110EBD37041F100010F
:10061C005EEA430E08BF20EAD37070BDC4F120051A
:10062C0000FA05F24EEA020E20FA04F301FA05F282
:10063C0043EA020321FA04F001F0004121FA04F22A
:10064C0020EA020000EBD3705EEA430E08BF20EAFA
:10065C00D37070BD94F0000F0FD101F00046400034
:10066C0041EB010111F4801F08BF013CF7D041EAB6
:10067C00060195F0000F18BF704703F000465200BA
:10068C0043EB030313F4801F08BF013DF7D043EA8B
:10069C000603704794EA0C0F0CEA135518BF95EA41
:1006AC000C0F0CD050EA410618BF52EA4306D1D1C8
:1006BC0081EA030101F000414FF0000070BD50EAE7
:1006CC00410606BF1046194652EA430619D094EA71
:1006DC000C0F02D150EA013613D195EA0C0F05D15B
:1006EC0052EA03361CBF104619460AD181EA0301AF
:1006FC0001F0004141F0FE4141F470014FF0000067
:10070C0070BD41F0FE4141F4780170BD70B54FF001
:10071C00FF0C4CF4E06C1CEA11541DBF1CEA135581
:10072C0094EA0C0F95EA0C0F00F0A7F8A4EB050463
:10073C0081EA030E52EA03354FEA013100F088805A
:10074C004FEA03334FF0805545EA131343EA126323
:10075C004FEA022245EA111545EA10654FEA0026D8
:10076C000EF000419D4208BF964244F1FD0404F591
:10077C00407402D25B084FEA3202B61A65EB0305ED
:10078C005B084FEA32024FF480104FF4002CB6EBAA
:10079C00020E75EB030E22BFB61A754640EA0C002A
:1007AC005B084FEA3202B6EB020E75EB030E22BF6A
:1007BC00B61A754640EA5C005B084FEA3202B6EBAB
:1007CC00020E75EB030E22BFB61A754640EA9C006A
:1007DC005B084FEA3202B6EB020E75EB030E22BF3A
:1007EC00B61A754640EADC0055EA060E18D04FEAF8
:1007FC00051545EA16754FEA06164FEAC30343EA98
:10080C0052734FEAC2025FEA1C1CC0D111F4801F64
:10081C000BD141EA00014FF000004FF0004CB6E75D
:10082C0011F4801F04BF01430020B4F1FD0C88BFFC
:10083C00BCF5E06F3FF6AFAEB5EB030C04BFB6EB07
:10084C00020C5FEA500C50F1000041EB045170BDFA
:10085C000EF0004E4EEA113114EB5C04C2BFD4EB27
:10086C000C0541EA045170BD41F480114FF0000EAB
:10087C00013C90E645EA060E8DE60CEA135594EA27
:10088C000C0F08BF95EA0C0F3FF43BAF94EA0C0F2A
:10089C000AD150EA01347FF434AF95EA0C0F7FF49F
:1008AC0025AF104619462CE795EA0C0F06D152EAF3
:1008BC0003353FF4FDAE1046194622E750EA4106D7
:1008CC0018BF52EA43067FF4C5AE50EA41047FF4E8
:1008DC000DAF52EA43057FF4EBAE12E74FEA41024B
:1008EC0012F5001215D211D56FF47873B3EB625276
:1008FC0012D94FEAC12343F0004343EA505311F09D
:10090C00004F23FA02F018BF404270474FF000002E
:10091C00704750EA013005D111F0004008BF6FF06C
:10092C00004070474FF00000704700BF80F000405F
:10093C0002E000BF81F0004142001FBF5FEA4103AB
:10094C0092EA030F7FEA226C7FEA236C6AD04FEAAB
:10095C001262D2EB1363C1BFD218414048404140F0
:10096C00B8BF5B42192B88BF704710F0004F40F4A2
:10097C00000020F07F4018BF404211F0004F41F4BE
:10098C00000121F07F4118BF494292EA030F3FD08A
:10099C00A2F1010241FA03FC10EB0C00C3F120039D
:1009AC0001FA03F100F0004302D5494260EB40002C
:1009BC00B0F5000F13D3B0F1807F06D340084FEA97
:1009CC00310102F10102FE2A51D2B1F1004F40EB8C
:1009DC00C25008BF20F0010040EA030070474900F4
:1009EC0040EB000010F4000FA2F10102EDD1B0FABF
:1009FC0080FCACF1080CB2EB0C0200FA0CF0AABFB4
:100A0C0000EBC25052421843BCBFD0401843704751
:100A1C0092F0000F81F4000106BF80F40000013257
:100A2C00013BB5E74FEA41037FEA226C18BF7FEA2E
:100A3C00236C21D092EA030F04D092F0000F08BF70
:100A4C000846704790EA010F1CBF0020704712F057
:100A5C007F4F04D1400028BF40F00040704712F196
:100A6C0000723CBF00F50000704700F0004343F0FB
:100A7C00FE4040F4000070477FEA226216BF084631
:100A8C007FEA23630146420206BF5FEA412390EAF4
:100A9C00010F40F4800070474FF0000304E000BFEA
:100AAC0010F0004348BF40425FEA000C08BF70479B
:100ABC0043F0964301464FF000001CE050EA01025F
:100ACC0008BF70474FF000030AE000BF50EA010274
:100ADC0008BF704711F0004302D5404261EB410161
:100AEC005FEA010C02BF84460146002043F0B64386
:100AFC0008BFA3F18053A3F50003BCFA8CF2083AAB
:100B0C00A3EBC25310DB01FA02FC634400FA02FCB3
:100B1C00C2F12002BCF1004F20FA02F243EB0200BA
:100B2C0008BF20F00100704702F1200201FA02FC1C
:100B3C00C2F1200250EA4C0021FA02F243EB02000F
:100B4C0008BF20EADC7070474FEA4002B2F1FE4F5A
:100B5C000FD34FF09E03B3EB12620DD94FEA002373
:100B6C0043F0004310F0004F23FA02F018BF40424C
:100B7C0070474FF00000704712F1610F01D1420233
:100B8C0005D110F0004008BF6FF0004070474FF0E7
:100B9C00000070472DE9F04389B0002404940594BB
:100BAC0006940794374B9A6942F010029A619A693D
:100BBC0002F010020092009A9A6942F020029A61A7
:100BCC009A6902F020020192019A9A6942F0040299
:100BDC009A619A6902F004020292029A9A6942F0AE
:100BEC0008029A619B6903F008030393039BDFF8E7
:100BFC009C9022464FF40051484600F076FEDFF8F8
:100C0C00908022464FF4B641404600F06EFE1E4ED8
:100C1C0022464FF48071304600F067FE4FF40053CB
:100C2C0004930125059506940227079704A94846C5
:100C3C0000F068FDE02304930594069504A9304662
:100C4C0000F060FD032304930594069504A9404627
:100C5C0000F058FD4FF4B64304930595069407979E
:100C6C0004A9404600F04EFD4FF4807304930595A3
:100C7C000694079704A9304600F044FD09B0BDE87E
:100C8C00F08300BF0010024000080140001001403A
:100C9C00000C014072B6FEE700B591B0002308933A
:100CAC0009930B930C930193029303930493059371
:100CBC00012206924FF4803307930A9202220D927E
:100CCC000E934FF4E0130F9306A800F033FE80B997
:100CDC000F23019302210291002303934FF48062AE
:100CEC000492059301A801F065F820B911B05DF8E4
:100CFC0004FBFFF7CFFFFFF7CDFF000008B500F0B6
:100D0C0013FCFFF7C9FFFFF745FF00F01DF800F0DB
:100D1C00D5F800F079F900F007F900F0D3F900F0FC
:100D2C00F7F900F05FFB2021054800F0D7FD4FF4E8
:100D3C000051044800F0DFFD012000F0DFF9F2E77C
:100D4C00000801400010014008B50E480E4B03602E
:100D5C004FF4827343604FF4004383600023C360FD
:100D6C00036143614FF400728261C36103624362A9
:100D7C0083620A23C36201F073F900B908BDFFF75F
:100D8C0089FFFBE70C0200200038004000B587B05B
:100D9C00002302930393049305930268124B9A4227
:100DAC0002D007B05DF804FB03F5EC33DA6942F4CA
:100DBC008042DA61DA6902F480420092009A9A6900
:100DCC0042F008029A619B6903F008030193019BAE
:100DDC004FF420430293022303930323059302A9A8
:100DEC00024800F08FFCDCE700380040000C0140AA
:100DFC0082B00E4B9A6942F001029A619A6902F034
:100E0C0001020092009ADA6942F08052DA61DB69E1
:100E1C0003F080530193019B054A536823F0E06370
:100E2C0043F00073536002B0704700BF00100240E3
:100E3C0000000140FEE7FEE7FEE7FEE7FEE7704735
:100E4C007047704708B500F081FB08BD08B5024833
:100E5C0001F092FA08BD00BFAC02002008B50248B0
:100E6C0001F08AFA08BD00BF6402002008B50248F0
:100E7C0001F090FD08BD00BFF402002008B5034648
:100E8C000B4A126842B10A4A106803446A469342FC
:100E9C0006D8074A136008BD054A06491160F2E7F7
:100EAC0002F022F90C2303604FF0FF30F3E700BF90
:100EBC00E4010020580300207047000000B587B003
:100ECC000023029303930493059300930193154815
:100EDC004FF0804202604722426083603122C26040
:100EEC000361836101F040FB98B906A94FF480536C
:100EFC0041F8103D0B4801F06DFB68B900230093DD
:100F0C0001936946074801F0D3FB40B907B05DF87F
:100F1C0004FBFFF7BFFEE8E7FFF7BCFEEEE7FFF7C9
:100F2C00B9FEF3E7AC02002000B587B000230293B2
:100F3C00039304930593009301931548154A02609B
:100F4C0047224260836042F20F72C2600361836188
:100F5C0001F00AFB98B906A94FF4805341F8103DF3
:100F6C000B4801F037FB68B90023009301936946E5
:100F7C00074801F09DFB40B907B05DF804FBFFF793
:100F8C0089FEE8E7FFF786FEEEE7FFF783FEF3E75F
:100F9C00640200200004004000B583B00368B3F184
:100FAC00804F05D0164A934216D003B05DF804FB6F
:100FBC0003F50433DA6942F00102DA61DB6903F00C
:100FCC0001030093009B002211461C2000F0F6FA4E
:100FDC001C2000F027FBE8E70A4BDA6942F002021A
:100FEC00DA61DB6903F002030193019B00221146D5
:100FFC001D2000F0E3FA1D2000F014FBD5E700BF24
:10100C00000400400010024008B50A480A4B036077
:10101C004FF4E133436000238360C36003610C220F
:10102C0042618361C36101F001FC00B908BDFFF7A7
:10103C0031FEFBE7F40200200038014030B587B0E8
:10104C000023029303930493059302681B4B9A426B
:10105C0001D007B030BD03F558439A6942F4804281
:10106C009A619A6902F480420092009A9A6942F05D
:10107C0004029A619B6903F004030193019B4FF4F2
:10108C000073029302230393032305930C4D02A9CF
:10109C00284600F037FB4FF480630293002403943E
:1010AC00049402A9284600F02DFB22462146252057
:1010BC0000F084FA252000F0B5FACAE700380140A8
:1010CC000008014008B50B480B4B036046234360F6
:1010DC000023836042F21072C2600361802383613B
:1010EC0001F042FA18B9034801F014F908BDFFF7F2
:1010FC00D1FDF8E76402002000040040034B1A689D
:10110C0000235362536A8342FCD37047640200206D
:10111C0008B501F0C1FD08BD70B584B006460C469B
:10112C004FF6DF7001F0AEFF254B9B7803BB244BD1
:10113C0000229A72224B93F90130B3F1FF3F1BD07E
:10114C00DBB2581C1F4A5278B4FBF2F101FB02F1DE
:10115C00884213DDB4FBF2F102FB11441849CC7246
:10116C00B3FBF2F303FB02F3154A1373002421E0E3
:10117C00134B10229A72DDE70023E2E71049CA7282
:10118C00EEE70F490A7B22440F4B8D7A05EB0415D1
:10119C004FF6DF71039143F265110291191D03C9DA
:1011AC008DE803001B6806EB0212A9B2102001F0B7
:1011BC00D6FE0134024BDB7AA342E2DC04B070BDF4
:1011CC00EC0100200400002058010020214B93F971
:1011DC000130B3F1FF3F02D01E4B1B7803B97047AF
:1011EC002DE9F04186B016460C46054606AF0023A5
:1011FC0047F8043DFFF7A8FC8046FFF751FC014679
:10120C002846FFF797FBFFF7FFF80022124BFFF77A
:10121C0053F9FFF763FB034642461049384602F088
:10122C004FF82401A4B20E4B0A4A927A1444BDF82A
:10123C003020039202961A1D92E803008DE80300F9
:10124C001B683A46A1B26E2001F089FE06B0BDE8DB
:10125C00F08100BFEC010020000024404C7300081A
:10126C00580100202DE9F04387B081460D46164603
:10127C001F4606AC002344F8043DFFF765FC80468E
:10128C00FFF70EFC01464846FFF754FBFFF7BCF88E
:10129C0000220E4BFFF710F9FFF720FB03464246E6
:1012AC000B49204602F00CF80A4B039702961A1DC4
:1012BC0092E803008DE803001B68224629466E2045
:1012CC0001F04DFE07B0BDE8F08300BF00002440E4
:1012DC004C730008580100202DE9F84F82468B46CC
:1012EC0090469946BDF82870002611E006EB0A05D9
:1012FC00ADB21FFA8BF43A462146284601F0E2FCC7
:10130C0004EB09013A4689B2284601F0DBFC0136B0
:10131C004645EBDB002611E01FFA8AF406EB0B05C1
:10132C00ADB23A462946204601F0CCFC04EB08004D
:10133C003A46294680B201F0C5FC01364E45EBDB3E
:10134C00BDE8F88F70B584B005460E46214B9B78EE
:10135C0063B1204B93F90130B3F1FF3F32D00091D0
:10136C0003461D4A0021084601F0CDFC194B93F9A8
:10137C000130002B24DB194A527893FBF2F402FB68
:10138C001434144B9A7A04EB1214E4B25C732401F7
:10139C00E4B201F06DFC124B039602951A1D92E813
:1013AC0003008DE803001B683E222146002001F05B
:1013BC00FAFC009510239F2221460020FFF78CFF9A
:1013CC0004B070BD00900B46034A0021084601F0A2
:1013DC009AFCCBE7EC010020A039000804000020A7
:1013EC005801002010B582B0364B00229A739A78BF
:1013FC002AB1344B9A78012A0FD002B010BD0421C7
:10140C003148FFF789FE2F4B04229A714FF6DF719A
:10141C0045F2BA50FFF796FFEBE793F90830032B30
:10142C000AD8DFE803F00210184603212748FFF71B
:10143C0073FE244B03229A714FF6DF7145F2BA50BA
:10144C00FFF780FFD9E704212148FFF765FE1D4B0C
:10145C0004229A71F0E706211E48FFF75DFE002476
:10146C0011E02101C9B2174B9B7A19441A4800EBC1
:10147C0084004FF6DF7343F26512C9B2D0F8140141
:10148C00FFF7F0FE0134052CEBDD0E4C94F9011046
:10149C00114B03EB8103D3F8140145F2BA530093BB
:1014AC004FF6DF7343F26512FFF790FE0623A3712C
:1014BC00C2E702210948FFF72FFE024B02229A7164
:1014CC00BAE700BFEC010020080000204800002013
:1014DC0078000020B800002004000020300100201B
:1014EC0010B504460E4B18784FF47A73B3FBF0F337
:1014FC000C4A1068B0FBF3F000F0A2F868B90F2C9E
:10150C0001D901200AE0002221464FF0FF3000F003
:10151C0055F8034B5C60002000E0012010BD00BFBB
:10152C00500100200000002008B5074A136843F062
:10153C0010031360032000F02FF80020FFF7D0FFFA
:10154C00FFF756FC002008BD00200240034A11683A
:10155C00034B1B780B441360704700BF340300200F
:10156C0050010020014B1868704700BF3403002065
:10157C0038B50446FFF7F6FF0546B4F1FF3F02D03D
:10158C00044B1B781C44FFF7EDFF401BA042FAD321
:10159C0038BD00BF50010020074AD36823F4E06334
:1015AC001B041B0C000200F4E060184340F0BF6009
:1015BC0040F40030D060704700ED00E030B4174BC1
:1015CC00DB68C3F30223C3F10704042C28BF0424F3
:1015DC001D1D062D18D9033B4FF0FF3505FA04F4F9
:1015EC0021EA0401994005FA03F322EA03031943A3
:1015FC0000280BDB0901C9B200F1604000F5614025
:10160C0080F8001330BC70470023E5E700F00F00B2
:10161C000901C9B2024B1954F4E700BF00ED00E018
:10162C0014ED00E0002807DB00F01F024009012345
:10163C009340024A42F82030704700BF00E100E0BE
:10164C000138B0F1807F0AD2064B5860064AF0216F
:10165C0082F823100020986007221A60704701203E
:10166C00704700BF10E000E000ED00E008B590F816
:10167C002130022B03D004238363012008BD0268B0
:10168C00136823F00E0313600268136823F0010340
:10169C0013600368194A934214D0143293421FD03A
:1016AC00143293421ED0143293421ED01432934201
:1016BC001ED01432934202D04FF0807203E04FF4EC
:1016CC00801200E001220E4B5A60012380F8213079
:1016DC00002380F82030436B6BB198470020CDE796
:1016EC001022F0E74FF48072EDE74FF48052EAE7F6
:1016FC004FF48032E7E70020C0E700BF080002404B
:10170C0000000240F0B482B000263246A2E0002D68
:10171C005AD0012D00D1CE68FF2B69D88446FF2BFF
:10172C0069D89500DCF800400F27AF4024EA070485
:10173C0006FA05F52C43CCF800404C6814F0805F99
:10174C0000F087805F4CA56945F00105A561A4698F
:10175C0004F001040194019C9508AF1C5A4C54F8F8
:10176C00274002F00307BF004FF00F0C0CFA07FCE8
:10177C0024EA0C0C554CA04243D004F58064A042E2
:10178C0000F0818004F58064A0427ED004F5806472
:10179C00A04234D0042435E04D4FBD4214D00BD9B7
:1017AC004C4FBD4210D007F58037BD420CD0A7F589
:1017BC008017BD42B0D107E0A7F58017BD4203D01A
:1017CC0007F58037BD42A7D18D687DB1012D08D0BA
:1017DC0044610826A0E7CE6808369DE7CE680C3633
:1017EC009AE70461082697E7002695E7042693E715
:1017FC0000F1040C93E7A2F10805AD0092E7032475
:10180C0000E00024BC4044EA0C0402352E4F47F89B
:10181C0025404C6814F4803F39D02F4D2C681C4364
:10182C002C604C6814F4003F37D02B4D6C681C4373
:10183C006C604C6814F4801F35D0274DAC681C4389
:10184C00AC604C6814F4001F33D0234DEC68234378
:10185C00EB6001320B6833FA02F430D0012494406F
:10186C0023409C42F5D14D68122DB7D094D8022D4F
:10187C00B1D07FF64CAF032DB6D0112D7FF44CAF09
:10188C00CE68043648E70124BCE70224BAE7124DBF
:10189C002C6824EA03042C60C3E70F4D6C6824EA1F
:1018AC0003046C60C5E70C4DAC6824EA0304AC601F
:1018BC00C7E7094DEC6824EA0303EB60C9E702B003
:1018CC00F0BC7047001002400000014000080140CD
:1018DC0000002110000031100004014083681942FF
:1018EC0001D1002070470120704712B90904016131
:1018FC00704701617047C36801EA030221EA0301E2
:10190C0041EA02410161704782B0084B1B68084AEA
:10191C00A2FB03235B0A00FB03F0019000BF019BB9
:10192C005A1E0192002BF9D102B070470000002022
:10193C00D34D6210002800F0F58170B582B00446DA
:10194C00036813F0010F2CD0AB4B5B6803F00C0356
:10195C00042B1DD0A84B5B6803F00C03082B12D092
:10196C006368B3F5803F41D0002B55D103F1804320
:10197C0003F504331A6822F480321A601A6822F4D0
:10198C0080221A6037E09C4B5B6813F4803FE7D0F1
:10199C00994B1B6813F4003F03D06368002B00F0D5
:1019AC00C381236813F0020F76D0934B5B6813F05E
:1019BC000C0F5FD0904B5B6803F00C03082B54D0DA
:1019CC002369002B00F08A808C4B01221A60FFF7F0
:1019DC00C9FD0546884B1B6813F0020F75D1FFF744
:1019EC00C1FD401B0228F5D90320A0E1824A1368EF
:1019FC0043F480331360636843B3FFF7B3FD0546CC
:101A0C007D4B1B6813F4003FCBD1FFF7ABFD401BA4
:101A1C006428F5D903208AE1B3F5A02F09D0764BC1
:101A2C001A6822F480321A601A6822F480221A6032
:101A3C00E1E703F18043A3F53C331A6842F48022BA
:101A4C001A601A6842F480321A60D4E7FFF78AFDF4
:101A5C000546694B1B6813F4003FA2D0FFF782FDCB
:101A6C00401B6428F5D9032061E1634B5B6813F4D8
:101A7C00803FA5D1604B1B6813F0020F04D0236983
:101A8C00012B01D0012052E15B4A136823F0F803CB
:101A9C00616943EAC1031360236813F0080F32D065
:101AAC00A369002B5BD0564B01221A60FFF75AFD3D
:101ABC000546514B5B6A13F0020F21D1FFF752FD23
:101ACC00401B0228F5D9032031E14B4A136823F05F
:101ADC00F803616943EAC1031360DDE7474B002259
:101AEC001A60FFF73FFD0546434B1B6813F0020FCE
:101AFC00D2D0FFF737FD401B0228F5D9032016E1A1
:101B0C000120FFF701FF236813F0040F00F0988009
:101B1C00394BDB6913F0805F33D1374BDA6942F014
:101B2C008052DA61DB6903F080530193019B01253C
:101B3C00344B1B6813F4807F25D0E368012B36D01F
:101B4C00002B4CD103F1804303F504331A6A22F0C5
:101B5C0001021A621A6A22F004021A622CE0284B63
:101B6C0000221A60FFF7FEFC0546234B5B6A13F05C
:101B7C00020FC8D0FFF7F6FC401B0228F5D9032052
:101B8C00D5E00025D4E71F4A136843F48073136033
:101B9C00FFF7E8FC06461B4B1B6813F4807FCCD187
:101BAC00FFF7E0FC801B6428F5D90320BFE0124A44
:101BBC00136A43F001031362E3687BB3FFF7D2FCB3
:101BCC0006460D4B1B6A13F0020F38D1FFF7CAFC07
:101BDC00801B41F288339842F3D90320A7E0052BF0
:101BEC0012D0054B1A6A22F001021A621A6A22F00C
:101BFC0004021A62E0E700BF0010024000004242FB
:101C0C0080044242007000404C4B1A6A42F00402BD
:101C1C001A621A6A42F001021A62CDE7FFF7A2FCBF
:101C2C000646464B1B6A13F0020F08D0FFF79AFCCE
:101C3C00801B41F288339842F3D9032077E0E5B951
:101C4C00E369002B72D03D4A526802F00C02082A5C
:101C5C0056D0022B17D03A4B00221A60FFF782FCA9
:101C6C000446364B1B6813F0007F47D0FFF77AFC15
:101C7C00001B0228F5D9032059E0304AD36923F020
:101C8C008053D361DCE72E4B00221A60FFF76AFC0D
:101C9C0005462A4B1B6813F0007F06D0FFF762FC49
:101CAC00401B0228F5D9032041E0236AB3F5803F9D
:101CBC001AD022494B6823F47413226A606A0243D7
:101CCC0013434B601E4B01221A60FFF74BFC04467A
:101CDC001A4B1B6813F0007F0ED1FFF743FC001B5F
:101CEC000228F5D9032022E0144A536823F4003368
:101CFC00A1680B435360DCE7002018E0002016E0DD
:101D0C00012B16D00D4B5B6803F48031226A914293
:101D1C0001D001200BE003F47013626A93420AD0E5
:101D2C00012004E001207047012000E0002002B0F7
:101D3C0070BD0120FBE70020F9E700BF0010024056
:101D4C006000424210B487B0164C94E80F000DF1BD
:101D5C00180C0CE90F00238AADF80430124B5B68A9
:101D6C0003F00C02082A1AD1C3F38342624412F81E
:101D7C00102C13F4803F05D10C4800FB02F007B087
:101D8C0010BC7047084B5B68C3F34043634413F8C3
:101D9C00143C074800FB02F0B0FBF3F0EFE70448FB
:101DAC00EDE700BFE03900080010024000093D00DB
:101DBC0000127A00002800F0A38070B50446524B44
:101DCC001B6803F007038B420CD24F4A136823F0B5
:101DDC0007030B431360136803F007038B4201D016
:101DEC00012070BD236813F0020F17D013F0040FFD
:101DFC0004D0464A536843F4E0635360236813F0FD
:101E0C00080F04D0414A536843F4605353603F4A6F
:101E1C00536823F0F003A068034353600D46236816
:101E2C0013F0010F31D06368012B20D0022B25D089
:101E3C00364A126812F0020F64D034494A6822F014
:101E4C00030213434B60FFF78DFB06462F4B5B6879
:101E5C0003F00C036268B3EB820F16D0FFF782FB22
:101E6C00801B41F288339842F0D90320B9E7274A06
:101E7C00126812F4003FE0D10120B2E7234A126845
:101E8C0012F0007FD9D10120ABE71F4B1B6803F088
:101E9C000703AB420CD91C4A136823F007032B43EE
:101EAC001360136803F00703AB4201D0012098E7DD
:101EBC00236813F0040F06D0144A536823F4E0632C
:101ECC00E1680B435360236813F0080F07D00F4AE7
:101EDC00536823F46053216943EAC1035360FFF74D
:101EEC0031FF0A4B5B68C3F30313094AD35CD84038
:101EFC00084B1860084B1868FFF7F2FA002070E7DF
:101F0C000120704701206CE70020024000100240C5
:101F1C00883900080000002054010020014B18688B
:101F2C00704700BF0000002008B5FFF7F7FF044B17
:101F3C005B68C3F30223034AD35CD84008BD00BFDF
:101F4C00001002409839000808B5FFF7E7FF044B72
:101F5C005B68C3F3C223034AD35CD84008BD00BFFF
:101F6C0000100240983900082DE9F04383B0044674
:101F7C000F4616461D46FFF7F5FA0A9B181A00EB9A
:101F8C000508FFF7EFFA81462A4B1B68C3F3CB33E6
:101F9C0008FB03F3019323689B6837EA03030CBF28
:101FAC0001230023B34240D0B5F1FF3FF3D0FFF73C
:101FBC00D9FAA0EB090040450AD2B8F1000F07D0BE
:101FCC00019B0BB94FF00008019B013B0193E2E729
:101FDC002268536823F0E00353606368B3F5827F93
:101FEC000BD0A36AB3F5005F14D0012384F85130F1
:101FFC00002384F85030032018E0A368B3F5004F99
:10200C0002D0B3F5806FECD12268136823F0400343
:10201C001360E6E72268136823F400531360226808
:10202C00136843F400531360DFE7002003B0BDE8EE
:10203C00F08300BF0000002010B582B0044600926F
:10204C000B4600228021FFF78FFF034610B918467C
:10205C0002B010BD636D43F0200363650323F6E704
:10206C00002856D010B50446436A33B94368B3F51B
:10207C00827F05D00023C36102E00023036143612A
:10208C000023A36294F85130002B3CD0022384F837
:10209C0051302268136823F040031360636803F423
:1020AC008273A26802F404421343E26802F40062F1
:1020BC001343226902F002021343626902F0010227
:1020CC001343A26902F400721343E26902F038026E
:1020DC001343226A02F080021343A26A02F40052F4
:1020EC00216813430B60638B226803F00403536075
:1020FC002268D36923F40063D36100206065012357
:10210C0084F8513010BD84F850302046FEF73EFE66
:10211C00BCE7012070472DE9F04182B090F85040A7
:10212C00012C00F0C8801D46174688460446012342
:10213C0080F85030FFF716FA064694F85130DBB2AF
:10214C00012B09D00220012384F85130002384F89C
:10215C00503002B0BDE8F081B8F1000F00F09D8066
:10216C00002F00F09C80032384F85130002363651A
:10217C00C4F83080A786E786A363A387E3876364EC
:10218C002364A368B3F5004F1CD023681A6812F0BF
:10219C00400F03D11A6842F040021A60E368B3F5AD
:1021AC00006F1AD063680BB1012F4ED1226B2368DC
:1021BC0012781A73236B01332363E38E013B9BB2BA
:1021CC00E38642E02268136823F040031360226820
:1021DC00136843F480431360D7E763680BB1012F96
:1021EC0015D1226B23681288DA60236B02332363C8
:1021FC00E38E013B9BB2E38609E0FFF7B3F9801B4A
:10220C00A84202D3B5F1FF3F4BD1002D4BD0E38E4A
:10221C009BB2002B2CD023689A6812F0020FECD0E2
:10222C00226B1288DA60236B02332363E38E013B4B
:10223C009BB2E386EBE7FFF795F9801BA84202D32C
:10224C00B5F1FF3F31D1002D31D0E38E9BB27BB184
:10225C0023689A6812F0020FEDD0226B12781A7371
:10226C00236B01332363E38E013B9BB2E386ECE7E4
:10227C00324629462046FFF7DFFE08B1202363656E
:10228C00A36833B901932368DA6801929B680193C0
:10229C00019B636D6BB9002055E7012053E70120CA
:1022AC0051E703204FE703204DE703204BE70320C2
:1022BC0049E7012047E702204BE710B4036A046AA0
:1022CC0024F001040462846924F0F00444EA02124C
:1022DC0023F00A030B438261036210BC704710B4F5
:1022EC00036A23F0100303628469036A24F47044C4
:1022FC0044EA023223F0A00343EA01138261036231
:10230C0010BC7047836823F07003194341F0070138
:10231C008160704790F83D30DBB2012B01D0012079
:10232C007047022380F83D300368104A934210D066
:10233C00B3F1804F0DD0A2F59432934209D002F53F
:10234C008062934205D01A6842F001021A600020A4
:10235C0070479A6802F00702062A05D01A6842F004
:10236C0001021A600020704700207047002C0140C9
:10237C00704770477047704710B5044603681A6978
:10238C0012F0020F11D0DA6812F0020F0DD06FF0BC
:10239C0002021A610123037703689B6913F0030F90
:1023AC0070D0FFF7E6FF0023237723681A6912F039
:1023BC00040F12D0DA6812F0040F0ED06FF0040282
:1023CC001A610223237723689B6913F4407F5FD043
:1023DC002046FFF7CEFF0023237723681A6912F0FB
:1023EC00080F12D0DA6812F0080F0ED06FF0080246
:1023FC001A61042323772368DB6913F0030F4ED093
:10240C002046FFF7B6FF0023237723681A6912F0E2
:10241C00100F12D0DA6812F0100F0ED06FF01002FD
:10242C001A61082323772368DB6913F4407F3DD0BE
:10243C002046FFF79EFF0023237723681A6912F0CA
:10244C00010F03D0DA6812F0010F36D123681A6934
:10245C0012F0800F03D0DA6812F0800F34D12368A9
:10246C001A6912F0400F03D0DA6812F0400F32D123
:10247C0023681A6912F0200F03D0DA6812F0200FCB
:10248C0030D110BDFFF774FF2046FFF773FF8AE7CA
:10249C002046FFF76DFF2046FFF76CFF9BE72046B9
:1024AC00FFF766FF2046FFF765FFACE72046FFF716
:1024BC005FFF2046FFF75EFFBDE76FF001021A6178
:1024CC00204600F02BFBC1E76FF080021A6120461A
:1024DC0000F023F9C3E76FF040021A612046FFF7C2
:1024EC004AFFC5E76FF020021A61204600F014F98C
:1024FC00C7E7000003681B4A90420AD0B0F1804F36
:10250C0007D0A2F59432904203D002F5806290423B
:10251C0003D123F070034A681343124A90420AD045
:10252C00B0F1804F07D0A2F59432904203D002F55F
:10253C008062904203D123F44073CA68134323F0A2
:10254C0080034A69134303608B68C3620B68836220
:10255C00044B984202D00123436170470B6903631B
:10256C00F9E700BF002C014038B310B5044690F8D1
:10257C003D30EBB1022384F83D30211D2068FFF77C
:10258C00B9FF012384F8463084F83E3084F83F309C
:10259C0084F8403084F8413084F8423084F8433079
:1025AC0084F8443084F8453084F83D30002010BD68
:1025BC0080F83C30FEF7F0FCDCE70120704710B4EB
:1025CC00846824F47F4442EA03230B43234383604F
:1025DC0010BC704790F83C30012B66D010B5044607
:1025EC00012380F83C30022380F83D300268936868
:1025FC0023F47F4323F0770393600B68402B4AD07E
:10260C0013D9602B3DD01ED9702B28D0B3F5005FA9
:10261C0030D1CB684A6889680068FFF7D0FF226820
:10262C00936843F48043936024E0102B06D004D9C4
:10263C00202B03D0302B01D01CE0DBB919462068CD
:10264C00FFF760FE16E0502B14D1CA684968006889
:10265C00FFF733FE50212068FFF754FE0AE0CB68E9
:10266C004A6889680068FFF7AAFF2268936843F0FC
:10267C0077039360012384F83D30002084F83C00FC
:10268C0010BDCA6849680068FFF729FE6021206800
:10269C00FFF738FEEEE7CA6849680068FFF70DFEE1
:1026AC0040212068FFF72EFEE4E70220704700006F
:1026BC0090F83C30012B2BD030B4012380F83C3007
:1026CC00022380F83D3003685C689D6824F0700438
:1026DC000A6822435A6003680E4A93420AD0B3F147
:1026EC00804F07D0A2F59432934203D002F580625A
:1026FC00934204D125F080054A6815439D6001235F
:10270C0080F83D30002380F83C30184630BC7047D0
:10271C0002207047002C0140704770470268D36854
:10272C0023F49073D3600268536923F0010353615F
:10273C00202380F83A30704790F83930DBB2212BE7
:10274C0027D18368B3F5805F16D0036A5A1C0262E6
:10275C001A7803685A60C38C013B9BB2C384D3B90B
:10276C000268D36823F08003D3600268D36843F017
:10277C004003D360002070470369002BE5D1036A46
:10278C001B880268C3F308035360036A02330362B5
:10279C00E1E70220704700207047000038B504467E
:1027AC000268136923F44053C1680B4313618368B7
:1027BC000269134342691A430168CB6823F4B0538E
:1027CC0023F00C031343CB600268536923F440736A
:1027DC0081690B4353610268124B9A421FD0FFF779
:1027EC00A3FB00EB800000EB800063689B00B0FB58
:1027FC00F3F00D4DA5FB00325109642202FB1102CE
:10280C0013013233A5FB03235B0903F0F00202EB47
:10281C00011203F00F03216813448B6038BDFFF7DE
:10282C0093FBDEE7003801401F85EB5158B310B520
:10283C00044690F839300BB3242384F839302268DD
:10284C00D36823F40053D3602046FFF7A7FF226818
:10285C00136923F4904313612268536923F02A030C
:10286C0053612268D36843F40053D3600020E063C3
:10287C00202384F8393084F83A3010BD80F8383091
:10288C00FEF7DCFBD8E70120704790F83A30DBB25A
:10289C00202B20D109B312B390F83830012B20D063
:1028AC0081628285C2850023C363222280F83A208C
:1028BC0080F838300168CA6842F48072CA600168D6
:1028CC004A6942F001024A610168CA6842F020027A
:1028DC00CA601846704702207047012070470120DB
:1028EC0070470220704708B50168CB6823F040039D
:1028FC00CB60202380F8393000F000F9002008BDAF
:10290C0008B590F83A30DBB2222B40D18368B3F58E
:10291C00805F13D0826AB3F5805F02D0DBB90369A4
:10292C00CBB903685B681370836A01338362C38D10
:10293C00013B9BB2C385A3B1002029E00269002AA8
:10294C00E8D1826A03685B68C3F308031380836A67
:10295C0002338362EBE703685B6803F07F03137059
:10296C00E2E70268D36823F02003D3600268D368DF
:10297C0023F48073D3600268536923F0010353611D
:10298C00202380F83A3000F0A1F8002000E002206B
:10299C0008BD704710B5044602681368D1685269C7
:1029AC0013F00F0005D113F0200F02D011F0200FFF
:1029BC0056D100286AD012F0010202D111F4907F96
:1029CC0064D013F0010F06D011F4807F03D0E06BBC
:1029DC0040F00100E06313F0040F04D01AB1E06B77
:1029EC0040F00200E06313F0020F04D01AB1E06B68
:1029FC0040F00400E06313F0080F07D011F0200F33
:102A0C0000D11AB1E26B42F00802E263E26B002AD9
:102A1C0048D013F0200F02D011F0200F24D12368DE
:102A2C005B6903F04003E26B12F0080F00D13BB37B
:102A3C002046FFF773FE23685A6912F0400F1BD033
:102A4C005A6922F040025A61636B8BB11A4A5A637D
:102A5C00606BFEF70BFE28B3606B436B984721E06D
:102A6C002046FFF74DFF1DE02046FFF749FFD6E754
:102A7C002046FFF78EFF15E02046FFF78AFF11E096
:102A8C002046FFF786FF0023E3630BE013F0800F73
:102A9C0002D011F0800F06D113F0400F02D011F0CC
:102AAC00400F04D110BD2046FFF746FEFAE7204642
:102ABC00FFF719FFF6E700BFC92A000808B5406AFE
:102ACC000023C385C384FFF764FF08BD08B5026803
:102ADC00074B1B681B689A4208D1064B1B6898472A
:102AEC0001220549024B1868FFF7CFFE08BD00BF55
:102AFC004C03002044030020FC01002008B50268B0
:102B0C00044B1B681B689A4202D1034B1B68984705
:102B1C0008BD00BF4C0300204003002008B502682C
:102B2C00084B1B681B689A4200D008BD064A5388A4
:102B3C0001339BB2538012889342F6D3034B1B682C
:102B4C009847F2E750030020FE01002048030020C4
:102B5C0010B5084C00224FF400612046FEF7C5FE6C
:102B6C000520FEF705FD01224FF400612046FEF71B
:102B7C00BCFE10BD000C014010B582B002AC04F8D4
:102B8C00010D00224FF480410548FEF7AEFE4FF0D8
:102B9C00FF33012221460348FFF7BDFA02B010BDF6
:102BAC00000C01400C02002038B504460D460122F1
:102BBC004FF480410548FEF798FE4FF0FF33AAB260
:102BCC0021460348FFF7A7FA38BD00BF000C0140AF
:102BDC000C020020F8B5461C02780AE03946204663
:102BEC00FFF7E2FF3C4410E0FEF7C2FC34462A46F5
:102BFC002646531EDDB292B1344614F8020BFFF791
:102C0C00BBFF767816F07F07E8D116F0800FEED078
:102C1C00661C2078FF28E7D14FF4FA70E4E7F8BD82
:102C2C00F0B583B007460D4616461C462A20FFF722
:102C3C00A3FF00238DF804308DF805708DF8063055
:102C4C008DF8076004210DEB0100FFF7ADFF2B2081
:102C5C00FFF792FF8DF805508DF8074004210DEB1E
:102C6C000100FFF7A1FF2C20FFF786FF03B0F0BD9A
:102C7C0008B500224FF480510148FEF736FE08BD1E
:102C8C00000C014008B501224FF480510148FEF7B9
:102C9C002CFE08BD000C014010B5FFF7E9FFFFF753
:102CAC0057FF074C2046FFF795FF04F13C00FFF758
:102CBC0091FF04F14C00FFF78DFFFFF7E3FF10BD10
:102CCC00D47200089F2801D87F2900D9704770B5AD
:102CDC0082B016460D460446FFF7CAFFE0B2E9B2D1
:102CEC004B1C421CDBB2D2B2FFF79AFF330A8DF8B1
:102CFC0004308DF80560022101A8FFF755FFFFF79E
:102D0C00C1FF02B070BD2DE9F84F05460E46924644
:102D1C009846BDF82890002717E0F11928194A4663
:102D2C0089B280B2FFF7CEFF01340F2C0CD80BFA0E
:102D3C0004F313F4004FF0D0F1192819424689B26C
:102D4C0080B2FFF7BFFFEFE701370F2F03D83AF838
:102D5C0027B00024E9E700271BE0281980B2F119FD
:102D6C0010304A4689B280B2FFF7ACFF01340F2C09
:102D7C000ED80BFA04F313F4004FEED0281980B2DE
:102D8C00F1191030424689B280B2FFF79BFFEDE794
:102D9C0001370F2F05D80AEB8703B3F802B00024D4
:102DAC00E5E7BDE8F88F82B02DE9F04F83B091468E
:102DBC000D93BDF84050BDF84460A2F120070F9B65
:102DCC00DB5D102B40F285805FFA80FA5FFA81FBA5
:102DDC009DF835305B44DBB2013B0AF10F02DBB2EC
:102DEC00D2B259465046FFF71BFF4FF000081CE0CB
:102DFC00330A8DF804308DF80560022101A8FFF725
:102E0C00D3FE01340F2C0ED807FA04F313F4004F41
:102E1C00EED02B0A8DF804308DF80550022101A854
:102E2C00FFF7C2FEEDE708F101089DF83530434588
:102E3C000BD9A9F1200203FB02F34FEA880202EB43
:102E4C0083030E9AD75A0024DCE79DF834205244B1
:102E5C00D2B25B44DBB2013B013A0AF11000DBB2A7
:102E6C00D2B25946C0B2FFF7DBFE4FF000081FE0AC
:102E7C00330A8DF804308DF80560022101A8FFF7A4
:102E8C0093FE01349DF83430103BA3420ED907FA5F
:102E9C0004F313F4004FEBD02B0A8DF804308DF8AB
:102EAC000550022101A8FFF77FFEEAE708F10108AF
:102EBC009DF8353043454DD9A9F1200203FB02F3AF
:102ECC004FEA880202EB83030E9A1A4457880024B7
:102EDC00D8E7C0B2C9B21A18D2B29DF835300B443B
:102EEC00DBB2013B013ADBB2D2B2FFF799FE4FF0F5
:102EFC00000A1EE0330A8DF804308DF805600221BB
:102F0C0001A8FFF751FE01340F9BDB5DA3420ED9E4
:102F1C0008FA04F313F4004FECD02B0A8DF80430AC
:102F2C008DF80550022101A8FFF73EFEEBE70AF1F0
:102F3C00010A9DF8353053450CD9A9F1200203FB49
:102F4C0002F34FEA8A0202EB83030E9A32F80380F3
:102F5C000024D9E703B0BDE8F04F02B0704782B04F
:102F6C002DE9F04184B004460E4615460B93BDF88E
:102F7C003880BDF83C70FFF77BFE16E00397CDF868
:102F8C0008800CAB93E803008DE803000B9B3146E3
:102F9C002046FFF708FF00E0002415F8012B0D9BDD
:102FAC00134413F8203C1C44A4B22A7892B19DF827
:102FBC002C3023449F2B07DD9DF82D301E44B6B2D8
:102FCC0033447F2B06DC00240A2AE5D00D2AD5D108
:102FDC000024E2E7FFF756FE04B0BDE8F04102B072
:102FEC00704700002DE9F04182B0BDF820809F2889
:102FFC0040D806460C4617461D467F293AD88318FA
:10300C00013B9F2B02DDC0F1A007BFB26319013B4E
:10301C007F2B02DDC4F18005ADB2FFF729FEF0B2C3
:10302C00E1B2C219D2B24B19DBB2013B013ADBB2AD
:10303C00D2B2FFF7F5FD4FEA18238DF804308DF866
:10304C00058001224FF480410C48FEF74EFC0CE049
:10305C004FF0FF33022201A90948FFF75CF8013C4D
:10306C00A4B2002CF4D1013DADB20DB13C46F8E751
:10307C00FFF708FE02B0BDE8F08100BF000C014074
:10308C000C02002000B583B000908023A022002108
:10309C000846FFF7A7FF03B05DF804FBFDF70CFF34
:1030AC000B480C490C4A002302E0D458C45004339A
:1030BC00C4188C42F9D3094A094C002301E013606F
:1030CC000432A242FBD300F015F8FDF717FE70474F
:1030DC0000000020C801002094730008C8010020E3
:1030EC0058030020FEE70000014B1868704700BF32
:1030FC006401002070B500250C4E0D4CA41BA410CF
:10310C00A54209D100F02EFC00250A4E0A4CA41B46
:10311C00A410A54205D170BD56F82530984701354D
:10312C00EEE756F8253098470135F2E78C73000826
:10313C008C7300088C7300089073000810B5431E44
:10314C000A44914200D110BD11F8014B03F8014F14
:10315C00F7E7000038B50546002943D051F8043C88
:10316C000C1F002BB8BFE41800F0CAF81E4A1368F5
:10317C00104633B9636014602846BDE8384000F04F
:10318C00C0B8A3420BD921686218934201BF1A68D8
:10319C005B685218226063600460EDE713465A685E
:1031AC000AB1A242FAD919685818A0420BD120686A
:1031BC000144581882421960DED1106852680144EB
:1031CC0019605A60D8E702D90C232B60D4E7206829
:1031DC0021188A4201BF1168526809182160626087
:1031EC005C60C9E738BD00BF0402002070B5CD1C7F
:1031FC0025F0030508350C2D38BF0C25002D06468F
:10320C0001DBA94203D90C233360002070BD00F010
:10321C0077F8214A1468214691B9204C23681BB9D0
:10322C00304600F03DF820602946304600F038F872
:10323C00431C24D10C233046336000F062F8E4E7E1
:10324C000B685B1B18D40B2B0FD90B60CC18CD5013
:10325C00304600F056F804F10B00231D20F0070057
:10326C00C31AD3D05A42E250D0E74B688C4216BFF7
:10327C00636013600C46EBE70C464968CCE7C41C52
:10328C0024F00304A04205D0211A304600F008F8BF
:10329C000130CFD02560DBE70402002008020020BB
:1032AC0038B50023054C054608462360FDF7E6FDBE
:1032BC00431C02D1236803B12B6038BD540300209A
:1032CC000EB46FF0004100B59CB01DAB029006909F
:1032DC00079104910848094953F8042B059100689B
:1032EC0002A9019300F068F80022029B1A701CB02E
:1032FC005DF804EB03B07047640100200802FFFF87
:10330C00704770472DE9F0478E6882469E420C4606
:10331C009046994637D88A8912F4906F31D002239F
:10332C00256809696F1A656905EB450595FBF3F589
:10333C0009F101033B449D4238BF1D46530530D56E
:10334C002946FFF753FF064650B90C234FF0FF30C8
:10335C00CAF80030A38943F04003A381BDE8F0878D
:10336C003A462169FFF7EAFEA38923F4906343F000
:10337C008003A38126613E4426604E466561ED1BA9
:10338C00A5604E4500D94E4632464146206800F0B5
:10339C00A1FAA36800209B1BA36023681E4426602F
:1033AC00DCE72A4600F0AFFA06460028E2D1216994
:1033BC005046FFF7CFFEC8E72DE9F04F1D468B892D
:1033CC009DB01F0680460C4616460FD50B696BB98F
:1033DC004021FFF70BFF2060206128B90C23C8F8AF
:1033EC0000304FF0FF30C8E04023636100230993A5
:1033FC0020238DF8293030234FF0010B8DF82A3023
:10340C00039537463D4615F8013B0BB1252B3ED1B4
:10341C00B7EB060A0BD05346324621464046FFF71F
:10342C0071FF013000F0A480099B534409933B7851
:10343C00002B00F09D8000234FF0FF32CDE90523D7
:10344C00049307938DF853301A932F46052217F8DF
:10345C00011B504800F030FA049BD0B9D90644BF88
:10346C0020228DF853201A0744BF2B228DF85320AD
:10347C002A782A2A15D02F4600200A25079A394681
:10348C0011F8013B303B092B4DD9B8B10FE02F4659
:10349C00B8E7404A3D46801A0BFA00F018430490F6
:1034AC00D3E7039A111D12680391002A01DB0792DE
:1034BC0004E0524243F00203079204933B782E2B14
:1034CC000CD17B782A2B33D1039B02371A1D1B6836
:1034DC000392002BB8BF4FF0FF3305932E4D032200
:1034EC003978284600F0E8F938B14023401B03FA3C
:1034FC0000F0049B013703430493397806222748D4
:10350C007E1C8DF8281000F0D7F9002838D0244BF9
:10351C0013BB039B073323F0070308330393099B67
:10352C004B4409936DE705FB023201200F46A6E7D9
:10353C0000230A25194601370593384610F8012B4C
:10354C00303A092A03D9002BC8D00591C6E705FBF0
:10355C00012101230746F0E703AB00932246114BF0
:10356C0004A94046AFF30080B0F1FF3F8146D6D1AD
:10357C00A3895B063FF535AF09981DB0BDE8F08F08
:10358C0003AB00932246074B04A9404600F082F897
:10359C00EAE700BF587300085E7300086273000806
:1035AC0000000000113300082DE9F04791461F463A
:1035BC008A680B6906469342B8BF1346C9F80030B7
:1035CC0091F843200C46DDF8208012B10133C9F884
:1035DC0000302368990642BFD9F800300233C9F88D
:1035EC000030256815F0060507D104F1190AE368C7
:1035FC00D9F800209B1AAB4229DC94F8433022689E
:10360C00003318BF012392062ED404F1430239462D
:10361C003046C047013021D02368E56803F006032B
:10362C00042B18BF0025D9F800204FF0000908BF63
:10363C00AD1AA368226908BF25EAE5759342C4BF99
:10364C009B1AED181A344D451AD1002008E00123BD
:10365C00524639463046C047013003D14FF0FF3057
:10366C00BDE8F0870135C2E73020E11881F843004E
:10367C005A1C94F845102244023382F84310C4E7D4
:10368C000123224639463046C0470130E6D009F1C5
:10369C000109D8E72DE9F04301F1430C0C46097EF2
:1036AC0085B06E291746064698460C9A00F0B380F2
:1036BC0022D8632936D00AD8002900F0B9805829BD
:1036CC0000F0838004F1420584F8421032E0642952
:1036DC0001D06929F6D120681368050603F10401AD
:1036EC002AD51B681160002B03DA2D225B4284F86B
:1036FC0043206F480A2239E0732900F09D8008D8D6
:10370C006F2920D07029DDD1236843F0200323607A
:10371C0003E0752917D07829D4D17823654884F82B
:10372C00453055E0136804F14205191D1B68116002
:10373C0084F8423001238CE01B6810F0400F1160BC
:10374C0018BF1BB2CFE713682568181D1060280638
:10375C0001D51B6802E06806FBD51B886F2914BFD6
:10376C000A2208225248002184F843106568002D73
:10377C00A560C0F29580216821F004012160002B26
:10378C003DD1002D40F08E806546082A0BD1236870
:10379C00DB0708D5236962689A42DEBF302305F83F
:1037AC00013C05F1FF35ACEB05032361CDF800803E
:1037BC003B4603AA21463046FFF7F6FE01304DD1B9
:1037CC004FF0FF3005B0BDE8F083394884F8451060
:1037DC00136821681D1D1B6815600A060BD5CA07E6
:1037EC0044BF41F0200121601BB9226822F0200265
:1037FC0022601022B7E74D0648BF9BB2EFE7654643
:10380C00B3FBF2F102FB1133C35C05F8013D0B462F
:10381C000029F5D1B9E713682568181D6169106096
:10382C0028061B6801D5196002E06A06FBD51980D1
:10383C00002365462361B9E71368191D11601D68E3
:10384C0062680021284600F037F808B1401B606020
:10385C0063682361002384F84330A7E723692A4671
:10386C0039463046C0470130AAD023689B0713D491
:10387C00E068039B9842B8BF1846A3E701234A4669
:10388C0039463046C04701309AD00135E368039A77
:10389C009B1AAB42F2DCEBE7002504F11909F5E7C2
:1038AC00002BACD1037804F1420584F842306CE76C
:1038BC00697300087A73000810B5C9B202449042CB
:1038CC00034601D1002303E01C7801308C42F6D171
:1038DC00184610BD884210B501EB020307D8421EF2
:1038EC0099420AD011F8014B02F8014FF8E78342D4
:1038FC00F5D98118D21AD34200D110BD13F8014D5D
:10390C0001F8014DF7E7F8B5074614460E4621B904
:10391C00BDE8F8401146FFF769BC22B9FFF71AFC65
:10392C0025462846F8BD00F014F8A0420FD22146D7
:10393C003846FFF75BFC05460028F2D0314622469C
:10394C00FFF7FCFB31463846FFF704FCE9E7354648
:10395C00E7E751F8043C181F002BBCBF0B58C018EC
:10396C0070470000F8B500BFF8BC08BC9E46704715
:0C397C00F8B500BFF8BC08BC9E467047C0
:103988000000000000000000010203040607080907
:103998000000000001020304000000000000000015
:1039A800F8000000E0030000800F0000003E000067
:1039B800FFFF00FEFFFF00FF003E8003800F800135
:1039C800E0038001F8000000000000000000000093
:1039D80000000000000000000203040506070809B3
:1039E8000A0B0C0D0E0F1010010200000405070849
:1039F800080C0B040505080804050407080808084E
:103A08000808080808080404080808070E0A09082E
:103A18000A08070A0A040509070E0B0B090B09080F
:103A2800080A090F0908080507050808050809070D
:103A38000908050809040408040D09090909060606
:103A48000609080C07080606080608040A070406FB
:103A5800070B080808110F060F090A0A0A060407C7
:103A68000708080E040C0C060D080A0904090805C5
:103A780008070808080D09090800080705080404CC
:103A880006090A0408110709050806070A090907AB
:103A98000B080D080A0A090A0E0A0B0A090908097F
:103AA8000C090B090E0F0A0D09090F090809080668
:103AB8000A080C07090908080B0909090907070872
:103AC8000B0809080C0D090B08070C08000000007A
:103AD80000000000000000000000000000000000DE
:103AE80000000000000000000000000000000000CE
:103AF80000000000000000000000000000000000BE
:103B080000000000000000000000000000000000AD
:103B1800006000000060000000600000006000001D
:103B2800006000000060000000600000006000000D
:103B380000000000006000000060000000000000BD
:103B4800000000000000000000000000000000006D
:103B5800006C0000006C0000006C0000006C0000AD
:103B6800000000000000000000000000000000004D
:103B7800000000000000000000000000000000003D
:103B8800000000000000000000000000000000002D
:103B9800000000000036000000360000003600007B
:103BA80000FF000000360000006C000000FF00006D
:103BB800006C0000006C0000006C000000000000B9
:103BC80000000000000000000000000000180000D5
:103BD80000180000007C000000FE000000C2000089
:103BE80000E0000000780000003C0000000E00002B
:103BF8000086000000FE0000007C0000003000008D
:103C0800003000000000000000000000000000007C
:103C180000000000C070000080D9000000DB000038
:103C280000DB000000760000C00D0000601B0000F3
:103C3800601B000060330000C0610000000000004D
:103C4800000000000000000000000000000000006C
:103C580000000000001E0000003F000000330000CC
:103C680000330000001E0000C03C0000C0660000D9
:103C780080630000E07F0000E03E000000000000DC
:103C8800000000000000000000000000000000002C
:103C9800006000000060000000600000006000009C
:103CA800000000000000000000000000000000000C
:103CB80000000000000000000000000000000000FC
:103CC80000000000000000000000000000000000EC
:103CD8000018000000300000003000000030000034
:103CE800006000000060000000600000006000004C
:103CF800006000000060000000300000003000009C
:103D08000030000000180000000000000000000063
:103D180000C00000006000000060000000600000BB
:103D280000300000003000000030000000300000CB
:103D3800003000000030000000600000006000005B
:103D48000060000000C0000000000000000000004B
:103D58000010000000540000003800000038000087
:103D680000540000001000000000000000000000E7
:103D7800000000000000000000000000000000003B
:103D8800000000000000000000000000000000002B
:103D980000000000000000000018000000180000EB
:103DA8000018000000FF000000FF000000180000DD
:103DB80000180000001800000000000000000000CB
:103DC80000000000000000000000000000000000EB
:103DD80000000000000000000000000000000000DB
:103DE80000000000000000000000000000000000CB
:103DF800000000000060000000600000006000009B
:103E080000C00000000000000000000000000000EA
:103E1800000000000000000000000000000000009A
:103E280000000000000000000070000000700000AA
:103E3800000000000000000000000000000000007A
:103E4800000000000000000000000000000000006A
:103E5800000000000000000000000000000000005A
:103E6800000000000000000000000000000000004A
:103E7800000000000060000000600000000000007A
:103E88000000000000000000000000000006000024
:103E980000060000000C0000000C000000180000E4
:103EA800001800000018000000300000003000007A
:103EB80000300000006000000060000000C000004A
:103EC80000C000000000000000000000000000002A
:103ED80000000000007C000000FE000000C600009A
:103EE80000C6000000C6000000C6000000C60000B2
:103EF80000C6000000FE0000007C0000000000007A
:103F080000000000000000000000000000000000A9
:103F18000000000000180000007800000078000091
:103F28000018000000180000001800000018000029
:103F380000180000007E0000007E00000000000065
:103F48000000000000000000000000000000000069
:103F580000000000007C000000FE00000086000059
:103F680000060000000C00000018000000300000EF
:103F78000060000000FE000000FE000000000000DD
:103F88000000000000000000000000000000000029
:103F980000000000007C000000FE00000086000019
:103FA80000060000007C0000007E00000006000003
:103FB8000086000000FE0000007C000000000000F9
:103FC80000000000000000000000000000000000E9
:103FD80000000000001C0000003C0000003C000045
:103FE800006C0000006C000000CC000000FE000027
:103FF80000FE0000000C0000000C000000000000A3
:1040080000000000000000000000000000000000A8
:104018000000000000FE000000FE000000C00000DC
:1040280000C0000000FC000000FE000000060000C8
:104038000086000000FE0000007C00000000000078
:104048000000000000000000000000000000000068
:1040580000000000003E0000007E000000E00000BC
:1040680000C0000000DC000000FE000000C60000E8
:1040780000C6000000FE0000007C000000000000F8
:104088000000000000000000000000000000000028
:104098000000000000FE000000FE0000000C000010
:1040A800000C00000018000000180000003000009C
:1040B8000030000000600000006000000000000008
:1040C80000000000000000000000000000000000E8
:1040D80000000000007C000000FE000000C6000098
:1040E80000C60000007C0000007C000000C6000044
:1040F80000C6000000FE0000007C00000000000078
:1041080000000000000000000000000000000000A7
:1041180000000000007C000000FE000000C6000057
:1041280000C6000000FE0000007600000006000047
:10413800000E000000FC000000F800000000000075
:104148000000000000000000000000000000000067
:104158000000000000000000000000000000000057
:104168000060000000600000000000000000000087
:104178000000000000600000006000000000000077
:104188000000000000000000000000000000000027
:104198000000000000000000000000000000000017
:1041A8000060000000600000000000000000000047
:1041B80000000000006000000060000000600000D7
:1041C80000C0000000000000000000000000000027
:1041D800000000000000000000060000001E0000B3
:1041E8000078000000E0000000E000000078000017
:1041F800001E000000060000000000000000000093
:1042080000000000000000000000000000000000A6
:1042180000000000000000000000000000FF000097
:1042280000FF0000000000000000000000FF000088
:1042380000FF000000000000000000000000000077
:104248000000000000000000000000000000000066
:10425800000000000000000000600000007800007E
:10426800001E00000007000000070000001E0000FC
:10427800007800000060000000000000000000005E
:104288000000000000000000000000000000000026
:104298000078000000FC0000008C0000000C00000A
:1042A800000C000000380000003000000030000062
:1042B8000000000000300000003000000000000096
:1042C80000000000000000000000000000000000E6
:1042D80000000000E0070000F01F00003838000070
:1042E800D8370000D86F0000986D0000986D000066
:1042F800F06F0000E066000000300000C03F0000E2
:10430800C00F0000000000000000000000000000D6
:1043180000000000000C0000001E0000001E00004D
:10432800003300000033000080610000807F00003F
:10433800807F0000C0C00000C0C000000000000076
:104348000000000000000000000000000000000065
:1043580000000000007E0000007F000000630000F5
:1043680000630000007E0000007F00000063000082
:1043780000630000007F0000007E000000000000D5
:104388000000000000000000000000000000000025
:1043980000000000001E0000003F00000071000047
:1043A8000060000000600000006000000060000085
:1043B80000710000003F0000001E00000000000027
:1043C80000000000000000000000000000000000E5
:1043D80000000000007E0000007F000080630000F5
:1043E8008061000080610000806100008061000041
:1043F80080630000007F0000007E000000000000D5
:1044080000000000000000000000000000000000A4
:1044180000000000007E0000007E00000060000038
:1044280000600000007C0000007C000000600000CC
:1044380000600000007E0000007E00000000000018
:104448000000000000000000000000000000000064
:1044580000000000007E0000007E000000600000F8
:1044680000600000007C0000007C0000006000008C
:104478000060000000600000006000000000000014
:104488000000000000000000000000000000000024
:1044980000000000001F0000803F00008070000046
:1044A80000600000806700008067000080610000F5
:1044B80080710000803F0000001F00000000000025
:1044C80000000000000000000000000000000000E4
:1044D8000000000080610000806100008061000031
:1044E80080610000807F0000807F00008061000004
:1044F8008061000080610000806100000000000011
:1045080000000000000000000000000000000000A3
:104518000000000000600000006000000060000073
:104528000060000000600000006000000060000003
:104538000060000000600000006000000000000053
:104548000000000000000000000000000000000063
:1045580000000000003000000030000000300000C3
:104568000030000000300000003000000030000083
:104578000030000000F0000000E000000000000033
:104588000000000000000000000000000000000023
:1045980000000000806100008063000000670000E8
:1045A800006E0000007C0000007C0000006E00002F
:1045B80000670000806300008061000000000000C8
:1045C80000000000000000000000000000000000E3
:1045D80000000000006000000060000000600000B3
:1045E8000060000000600000006000000060000043
:1045F80000600000007E0000007E00000000000057
:1046080000000000000000000000000000000000A2
:10461800000000003870000078780000787800000A
:10462800D86C0000D86C0000D86C000098670000B7
:10463800986700001863000018630000000000007D
:104648000000000000000000000000000000000062
:1046580000000000C0700000C0780000C0780000B2
:10466800C06C0000C06C0000C0660000C06600009E
:10467800C0630000C0630000C061000000000000CB
:104688000000000000000000000000000000000022
:1046980000000000001F0000803F0000C071000003
:1046A800C0600000C0600000C0600000C060000082
:1046B800C0710000803F0000001F000000000000E3
:1046C80000000000000000000000000000000000E2
:1046D80000000000007E0000007F00000063000072
:1046E8000063000000630000007F0000007E0000FF
:1046F8000060000000600000006000000000000092
:1047080000000000000000000000000000000000A1
:1047180000000000001F0000803F0000C071000082
:10472800C0600000C0600000C0600000C060000001
:10473800C0710000803F0000C01F0000E0000000C2
:104748006000000000000000000000000000000001
:1047580000000000007E0000007F000000630000F1
:1047680000630000007E0000007C0000006600007E
:104778000066000000630000006300000000000005
:104788000000000000000000000000000000000021
:1047980000000000003C0000007E000000620000F5
:1047A80000600000007C0000003E000000060000E1
:1047B80000460000007E0000003C000000000000F1
:1047C80000000000000000000000000000000000E1
:1047D8000000000000FF000000FF000000180000BB
:1047E8000018000000180000001800000018000061
:1047F8000018000000180000001800000000000069
:1048080000000000000000000000000000000000A0
:1048180000000000806100008061000080610000ED
:1048280080610000806100008061000080610000FC
:1048380080730000003F0000001E00000000000020
:104848000000000000000000000000000000000060
:104858000000000080C1000080C10000006300006B
:10486800006300000063000000360000003600000E
:1048780000360000001C0000001C000000000000C2
:104888000000000000000000000000000000000020
:104898000000000006C1000086C300008C63000011
:1048A800CC660000CC660000D8360000783C0000DA
:1048B800783C0000301800003018000000000000AC
:1048C80000000000000000000000000000000000E0
:1048D80000000000006300000063000000360000D4
:1048E80000360000001C0000001C0000003600001C
:1048F80000360000006300000063000000000000B4
:10490800000000000000000000000000000000009F
:104918000000000000C3000000C3000000660000A3
:1049280000660000003C0000003C00000018000089
:104938000018000000180000001800000000000027
:10494800000000000000000000000000000000005F
:104958000000000000FF000000FF0000000700004A
:10496800000E0000001C000000380000007000006D
:1049780000E0000000FF000000FF00000000000051
:10498800000000000000000000000000000000001F
:10499800007000000070000000600000006000006F
:1049A800006000000060000000600000006000007F
:1049B800006000000060000000600000006000006F
:1049C80000700000007000000000000000C000003F
:1049D80000C00000006000000060000000600000EF
:1049E800003000000030000000180000001800002F
:1049F80000180000000C0000000C00000006000079
:104A08000006000000000000000000000000000098
:104A1800007000000070000000300000003000004E
:104A280000300000003000000030000000300000BE
:104A380000300000003000000030000000300000AE
:104A4800007000000070000000000000000000007E
:104A5800000000000038000000380000006C000072
:104A6800006C000000C6000000C600000000000046
:104A7800000000000000000000000000000000002E
:104A8800000000000000000000000000000000001E
:104A9800000000000000000000000000000000000E
:104AA80000000000000000000000000000000000FE
:104AB80000000000000000000000000000000000EE
:104AC80000FF000000FF00000000000000000000E0
:104AD800006000000030000000100000000000002E
:104AE80000000000000000000000000000000000BE
:104AF80000000000000000000000000000000000AE
:104B0800000000000000000000000000000000009D
:104B1800000000000000000000000000000000008D
:104B2800007C0000007E000000060000003E00003F
:104B380000660000007E0000003E0000000000004B
:104B4800000000000000000000000000000000005D
:104B580000600000006000000060000000600000CD
:104B6800006E0000007F000000630000006300008A
:104B780000630000007F0000006E000000000000DD
:104B8800000000000000000000000000000000001D
:104B9800000000000000000000000000000000000D
:104BA800003C0000007C0000006000000060000085
:104BB80000600000007C0000003C000000000000D5
:104BC80000000000000000000000000000000000DD
:104BD80000030000000300000003000000030000C1
:104BE800003B0000007F000000630000006300003D
:104BF80000630000007F0000003B00000000000090
:104C0800000000000000000000000000000000009C
:104C1800000000000000000000000000000000008C
:104C2800003C0000007E000000660000007E0000DE
:104C380000600000007E0000003E00000000000050
:104C4800000000000000000000000000000000005C
:104C580000380000007800000060000000600000DC
:104C680000F8000000F8000000600000006000008C
:104C7800006000000060000000600000000000000C
:104C8800000000000000000000000000000000001C
:104C9800000000000000000000000000000000000C
:104CA800003F00000066000000660000006600008B
:104CB800003C000000600000003E000000630000AF
:104CC80000630000003E000000000000000000003B
:104CD800006000000060000000600000006000004C
:104CE800006E0000007F0000006300000063000009
:104CF8000063000000630000006300000000000083
:104D0800000000000000000000000000000000009B
:104D180000000000006000000060000000000000CB
:104D280000600000006000000060000000600000FB
:104D3800006000000060000000600000000000004B
:104D4800000000000000000000000000000000005B
:104D5800000000000060000000600000000000008B
:104D680000600000006000000060000000600000BB
:104D780000600000006000000060000000600000AB
:104D880000E0000000C0000000000000000000007B
:104D9800006000000060000000600000006000008B
:104DA8000063000000660000006C0000007800004E
:104DB800006C0000006600000063000000000000B6
:104DC80000000000000000000000000000000000DB
:104DD800006000000060000000600000006000004B
:104DE800006000000060000000600000006000003B
:104DF800006000000060000000600000000000008B
:104E0800000000000000000000000000000000009A
:104E1800000000000000000000000000000000008A
:104E2800C06D0000E07F0000606600006066000062
:104E38006066000060660000606600000000000018
:104E4800000000000000000000000000000000005A
:104E5800000000000000000000000000000000004A
:104E6800006E0000007F0000006300000063000087
:104E78000063000000630000006300000000000001
:104E8800000000000000000000000000000000001A
:104E9800000000000000000000000000000000000A
:104EA800003E0000007F0000006300000063000077
:104EB80000630000007F0000003E000000000000CA
:104EC80000000000000000000000000000000000DA
:104ED80000000000000000000000000000000000CA
:104EE800006E0000007F0000006300000063000007
:104EF80000630000007F0000006E000000600000FA
:104F080000600000006000000000000000000000D9
:104F18000000000000000000000000000000000089
:104F2800003B0000007F00000063000000630000F9
:104F380000630000007F0000003B00000003000049
:104F48000003000000030000000000000000000053
:104F58000000000000000000000000000000000049
:104F6800006C0000007C0000006000000060000091
:104F78000060000000600000006000000000000009
:104F88000000000000000000000000000000000019
:104F98000000000000000000000000000000000009
:104FA80000380000007800000060000000300000B9
:104FB80000180000007800000070000000000000E9
:104FC80000000000000000000000000000000000D9
:104FD8000000000000000000006000000060000009
:104FE80000F8000000F80000006000000060000009
:104FF8000060000000780000003800000000000099
:105008000000000000000000000000000000000098
:105018000000000000000000000000000000000088
:1050280000630000006300000063000000630000EC
:1050380000630000007F0000003B0000000000004B
:105048000000000000000000000000000000000058
:105058000000000000000000000000000000000048
:1050680000C3000000C300000066000000660000E6
:10507800003C0000003C0000001800000000000098
:105088000000000000000000000000000000000018
:105098000000000000000000000000000000000008
:1050A80030C6000030C60000606F0000606F00006E
:1050B800C0390000C039000080190000000000005D
:1050C80000000000000000000000000000000000D8
:1050D80000000000000000000000000000000000C8
:1050E80000C60000006C0000006C000000380000E2
:1050F800006C0000006C000000C60000000000000A
:105108000000000000000000000000000000000097
:105118000000000000000000000000000000000087
:1051280000C3000000C30000006600000066000025
:10513800003C0000003C00000018000000180000BF
:1051480000300000003000000000000000000000F7
:105158000000000000000000000000000000000047
:1051680000780000007800000018000000300000FF
:1051780000600000007800000078000000000000D7
:105188000000000000000000000000000000000017
:105198000018000000380000003000000030000057
:1051A80000300000003000000060000000600000D7
:1051B8000030000000300000003000000030000027
:1051C8000038000000180000000000000000000087
:1051D8000018000000180000001800000018000067
:1051E8000018000000180000001800000018000057
:1051F8000018000000180000001800000018000047
:105208000018000000180000000000000000000066
:105218000060000000700000003000000030000056
:1052280000300000003000000018000000180000E6
:1052380000300000003000000030000000300000A6
:105248000070000000600000000000000000000086
:1052580000000000000000000066000000F60000EA
:1052680000DE000000CC000000000000000000008C
:105278000000000000000000000000000000000026
:105288000000000000000000000000000000000016
:105298000000000000000000000000000000000006
:1052A80000000000000000000000000000000000F6
:1052B80000000000000000000000000000000000E6
:1052C80000000000000000000000000000000000D6
:1052D8000000000000FE000000FE0000003000009A
:1052E80000300000003F0000803F0000C031000097
:1052F800C0310000803300000033000000000000CF
:10530800000000000000000000000000001800007D
:1053180000000000007E0000007E00000060000029
:1053280000600000006000000060000000600000F5
:105338000060000000600000006000000000000045
:105348000000000000000000000000000000000055
:105358000000000000000000000000000000000045
:105368000000000000000000000000000000000035
:105378000000000000600000006000000060000005
:1053880000C0000000000000000000000000000055
:1053980000180000001800000030000000000000A5
:1053A8000078000000780000006000000060000045
:1053B80000600000006000000060000000000000C5
:1053C80000000000000000000000000000000000D5
:1053D80000000000000000000000000000000000C5
:1053E80000000000000000000000000000000000B5
:1053F80000000000006C0000006C0000006C000061
:1054080000D80000000000000000000000000000BC
:105418000000000000000000000000000000000084
:105428000000000000000000000000000000000074
:1054380000000000C0CC0000C0CC0000000000004C
:105448000000000000000000000000000000000054
:105458000018000000180000007E0000007E000018
:1054680000180000001800000018000000180000D4
:1054780000180000001800000000000000000000F4
:105488000000000000000000000000000000000014
:105498000018000000180000007E0000007E0000D8
:1054A800001800000018000000180000007E00002E
:1054B800007E000000180000001800000000000036
:1054C80000000000000000000000000000000000D4
:1054D80000000000003C0000007E000000620000A8
:1054E80000F80000006000000060000000F8000004
:1054F80000620000007E0000003C00000000000088
:105508000000000000000000000000000000000093
:1055180000000000C070000080D9000000DB00001F
:1055280000DB000000760000C70D00006D1B008046
:105538006D1B00806D330080C76100000000000013
:105548000000000000000000000000000000000053
:1055580000000000801F0000801F0000801900006C
:10556800F0310000F83100009C3100008C3100005F
:105578009C710000F8E10000F0C10000000000008C
:105588000000000000000000000000000000000013
:105598000000000000000000000000000000000003
:1055A80000180000003000000060000000600000EB
:1055B800003000000018000000000000000000009B
:1055C80000000000000000000000000000000000D3
:1055D8000000000080610000806100008061000020
:1055E800F0610000F87F00009C7F00008C610000E3
:1055F8009C610000F8610000F061000000000000FC
:10560800000000000000000000000000000C000086
:105618000000000000630000006300000067000055
:1056280000660000007C0000007E000000660000AC
:105638000063000000630000006300000000000039
:105648000000000000000000000000000000000052
:105658000000000000FE000000FE00000030000016
:1056680000300000003F0000803F00008031000053
:10567800C0300000C0300000C03000000000000052
:105688000000000000000000000000000000000012
:10569800000000008061000080610000806100005F
:1056A800806100008061000080610000806100006E
:1056B80080610000807F0000807F0000000C0000F7
:1056C800000C0000000C00000000000000000000BA
:1056D8000060000000F8000000F800000060000012
:1056E800006E0000007E00000067000000630000FC
:1056F8000063000000630000006300000007000072
:10570800000E0000000C0000000000000000000077
:105718000018000000180000003000000000000021
:1057280000780000007800000060000000600000C1
:105738000060000000600000006000000000000041
:105748000000000000000000000000000000000051
:105758000000000000000000000000000000000041
:105768000000000000000000000000000000000031
:105778000000000000600000006000000060000001
:1057880000C0000000000000000000000000000051
:1057980000360000006C0000006C0000006C000087
:1057A80000000000000000000000000000000000F1
:1057B80000000000000000000000000000000000E1
:1057C80000000000000000000000000000000000D1
:1057D800006C0000006C0000006C000000D80000A5
:1057E80000000000000000000000000000000000B1
:1057F80000000000000000000000000000000000A1
:105808000000000000000000000000000000000090
:10581800000000000000000000000000003C000044
:10582800007E0000007E0000007E0000007E000078
:10583800003C000000000000000000000000000024
:105848000000000000000000000000000000000050
:105858000000000000000000000000000000000040
:10586800000000000000000000FF000000FF000032
:105878000000000000000000000000000000000020
:105888000000000000000000000000000000000010
:105898000000000000000000000000000000000000
:1058A8000000000000000000F87F0000F87F000002
:1058B80000000000000000000000000000000000E0
:1058C80000000000000000000000000000000000D0
:1058D80000000000000000000000000000000000C0
:1058E80000000000000000000000000000000000B0
:1058F80000000000000000000000000000000000A0
:10590800000000000000000000000000000000008F
:105918000000000040740000C0260000C0260000FF
:1059280040250000402500000000000000000000A5
:10593800000000000000000000000000000000005F
:10594800000000000000000000000000000000004F
:10595800000000000000000000000000000000003F
:10596800003E0000003E0000E0370000F037000075
:1059780030760000F0E70000E0C3000000000000FF
:10598800000000000000000000000000000000000F
:1059980000000000000000000000000000000000FF
:1059A800006000000030000000180000001800002F
:1059B800003000000060000000000000000000004F
:1059C80000000000000000000000000000000000CF
:1059D80000000000000000000000000000000000BF
:1059E8000063000000630000E07F0000F07F00001B
:1059F80030630000F0630000E06300000000000076
:105A0800000000000000000000000000000000008E
:105A1800000C0000000C000000180000000000004E
:105A280000660000006E0000007C0000007C0000A2
:105A3800006E000000660000006600000000000024
:105A4800000000000000000000000000000000004E
:105A58000060000000F8000000F80000006000008E
:105A6800006E0000007F000000630000006300007B
:105A780000630000006300000063000000000000F5
:105A8800000000000000000000000000000000000E
:105A980000000000000000000000000000000000FE
:105AA8000063000000630000006300000063000062
:105AB80000630000007F0000007F00000018000065
:105AC800001800000018000000000000000000009E
:105AD80000000000000000000000000000000000BE
:105AE80000000000000000000000000000000000AE
:105AF800000000000000000000000000000000009E
:105B0800000000000000000000000000003C000051
:105B18000000000080C10000006300000063000076
:105B28000036000000360000001E0000001C0000C7
:105B3800001C000000780000007000000000000059
:105B4800000000000000000000000000000000004D
:105B58000066000000640000003C00000000000037
:105B680000C600000066000000660000006C00002F
:105B7800003C0000003C0000001800000018000075
:105B880000380000003000000000000000000000A5
:105B9800000000000030000000300000003000006D
:105BA800003000000030000000300000003000002D
:105BB8000030000000F0000000E0000000000000DD
:105BC80000000000000000000000000000000000CD
:105BD800000000000000000000660000003C00001B
:105BE800007E00000066000000660000007E0000E5
:105BF800003C0000006600000000000000000000FB
:105C08000000000000000000000000000006000086
:105C180000060000007E0000007E0000006000001A
:105C280000600000006000000060000000600000EC
:105C3800006000000060000000600000000000003C
:105C4800000000000000000000000000000000004C
:105C580000180000001800000018000000180000DC
:105C680000180000001800000000000000000000FC
:105C780000180000001800000018000000180000BC
:105C880000180000001800000000000000000000DC
:105C9800003C0000007C0000006000000070000074
:105CA800007C000000CE000000C6000000E60000F6
:105CB800007C0000001C0000000C0000007C0000BC
:105CC800007800000000000000000000002600002E
:105CD80000000000007E0000007E00000060000060
:105CE80000600000007C0000007C000000600000F4
:105CF80000600000007E0000007E00000000000040
:105D0800000000000000000000000000000000008B
:105D1800800F00006030000020270000904F000036
:105D2800904C0000104C0000904C0000904F000078
:105D38002027000060300000800F000000000000F5
:105D4800000000000000000000000000000000004B
:105D580000000000001E0000003F0000007100006D
:105D680000600000007E0000007E0000006000006F
:105D780000710000003F0000001E0000000000004D
:105D8800000000000000000000000000000000000B
:105D980000000000000000000000000000000000FB
:105DA800003300000066000000CC000000CC0000BA
:105DB8000066000000330000000000000000000042
:105DC80000000000000000000000000000000000CB
:105DD80000000000000000000000000000000000BB
:105DE8000000000000FE000000FE000000060000A9
:105DF800000600000006000000000000000000008F
:105E0800000000000000000000000000000000008A
:105E1800000000000000000000000000000000007A
:105E2800000000000000000000000000000000006A
:105E3800000000000000000000000000000000005A
:105E4800000000000000000000000000000000004A
:105E5800003C000000420000005A0000005A000008
:105E680000420000003C00000000000000000000AC
:105E7800000000000000000000000000000000001A
:105E88000000000000000000000000000098000072
:105E980000000000006000000060000000600000DA
:105EA800006000000060000000600000006000006A
:105EB80000600000006000000060000000000000BA
:105EC80000000000000000000000000000000000CA
:105ED80000600000009000000090000000600000DA
:105EE80000000000000000000000000000000000AA
:105EF800000000000000000000000000000000009A
:105F08000000000000000000000000000000000089
:105F180000180000001800000018000000FF000032
:105F280000FF000000180000001800000018000022
:105F38000000000000FF000000FF0000000000005B
:105F48000000000000000000000000000000000049
:105F58000000000000600000006000000060000019
:105F680000600000006000000060000000600000A9
:105F780000600000006000000060000000000000F9
:105F88000000000000000000000000000000000009
:105F98000000000000600000006000000000000039
:105FA8000060000000600000006000000060000069
:105FB80000600000006000000060000000000000B9
:105FC80000000000000000000000000000000000C9
:105FD8000000000000000000000C0000000C0000A1
:105FE800007C0000007C00000060000000600000F1
:105FF8000060000000600000006000000000000079
:106008000000000000000000000000000000000088
:106018000000000000000000000000000000000078
:1060280000630000006300000063000000630000DC
:1060380000630000807F0000807D00000060000099
:106048000060000000600000000000000000000088
:1060580000000000803F0000807D0000807D00007F
:10606800807D0000807D0000803D0000800D0000E4
:10607800800D0000800D0000800D0000800D0000E4
:10608800800D00000000000000000000000000007B
:1060980000000000000000000000000000000000F8
:1060A8000000000000000000006000000060000028
:1060B80000000000000000000000000000000000D8
:1060C80000000000000000000000000000000000C8
:1060D8000000000000240000002400000000000070
:1060E800003C0000007E000000660000007E00000A
:1060F80000600000007E0000003E0000000000007C
:106108000000000000000000000000000000000087
:1061180000000000807100008E7900009F79000067
:10612800B37D0000B36D00009F6D00009E67000006
:10613800806700009F6300009F630000000000006C
:106148000000000000000000000000000000000047
:106158000000000000000000000000000000000037
:10616800003C0000007C000000600000007C000093
:1061780000600000007C0000003C000000000000FF
:106188000000000000000000000000000000000007
:1061980000000000000000000000000000000000F7
:1061A800006600000033000080190000801900001C
:1061B800003300000066000000000000000000003E
:1061C80000000000000000000000000000000000C7
:1061D80000000000006000000060000000000000F7
:1061E8000060000000600000006000000060000027
:1061F8000060000000600000006000000060000017
:1062080000E0000000C000000000000000000000E6
:1062180000000000003C0000007C0000006400005A
:106228000060000000780000001E0000000600006A
:1062380000460000007E000000780000000000001A
:106248000000000000000000000000000000000046
:106258000000000000000000000000000000000036
:10626800003800000078000000600000007800009E
:10627800000C0000007C0000007800000000000016
:106288000000000000000000000000000000000006
:10629800000000000090000000B0000000000000B6
:1062A8000060000000600000006000000060000066
:1062B80000600000006000000060000000000000B6
:1062C80000000000000000000000000000000000C6
:1062D80000000000001C0000001E00000016000066
:1062E800003600000033000000230000007F00009B
:1062F800807F00008061000080C100000000000075
:106308000000000000000000000000000000000085
:1063180000000000007F0000007F00000060000017
:1063280000600000007E0000007F000000630000A5
:1063380000630000007F0000007E000000000000F5
:106348000000000000000000000000000000000045
:1063580000000000007E0000007F000000630000D5
:1063680000670000007E0000007F0000006300005E
:1063780000630000007F0000007E000000000000B5
:106388000000000000000000000000000000000005
:1063980000000000007E0000007E00000060000099
:1063A8000060000000600000006000000060000065
:1063B80000600000006000000060000000000000B5
:1063C80000000000000000000000000000000000C5
:1063D80000000000801F0000801F000080190000DE
:1063E80080390000803100008031000080310000D9
:1063F80080610000C0FF0000C0FF000040C0000036
:1064080040C0000040C00000000000000000000084
:1064180000000000007E0000007E00000060000018
:1064280000600000007C0000007C000000600000AC
:1064380000600000007E0000007E000000000000F8
:106448000000000000000000000000000000000044
:10645800000000003063000030630000307300006B
:1064680060330000E01F0000E03F000070330000D0
:106478003063000030630000186300000000000073
:106488000000000000000000000000000000000004
:1064980000000000003C0000007E0000004E0000EC
:1064A800000E0000007C0000007C0000000E0000D0
:1064B800000E0000007E0000007C000000000000CC
:1064C80000000000000000000000000000000000C4
:1064D800000000008061000080610000806300000F
:1064E8008067000080670000806D000080790000F0
:1064F80080790000807100008061000000000000C9
:10650800000000000000000000000000001E000065
:1065180000000000806100008061000080630000CE
:106528008067000080670000806D000080790000AF
:106538008079000080710000806100000000000088
:106548000000000000000000000000000000000043
:106558000000000000630000006300000067000006
:1065680000660000007C0000007E0000006600005D
:1065780000630000006300000063000000000000EA
:106588000000000000000000000000000000000003
:1065980000000000801F0000801F0000801900001C
:1065A8008039000080310000803100008031000017
:1065B8008071000080E1000080C100000000000040
:1065C80000000000000000000000000000000000C3
:1065D800000000003870000078780000787800002B
:1065E800D86C0000D86C0000D86C000098670000D8
:1065F800986700001867000018630000000000009A
:106608000000000000000000000000000000000082
:1066180000000000806100008061000080610000CF
:1066280080610000807F0000807F000080610000A2
:1066380080610000806100008061000000000000AF
:106648000000000000000000000000000000000042
:1066580000000000001F0000803F0000C071000023
:10666800C0600000C0600000C0600000C0600000A2
:10667800C0710000803F0000001F00000000000003
:106688000000000000000000000000000000000002
:1066980000000000807F0000807F00008061000013
:1066A800806100008061000080610000806100005E
:1066B800806100008061000080610000000000002F
:1066C80000000000000000000000000000000000C2
:1066D80000000000007E0000007F00000063000052
:1066E80000630000007E0000007C000000600000E5
:1066F8000060000000600000006000000000000072
:106708000000000000000000000000000000000081
:1067180000000000001E0000003F000000710000A3
:1067280000600000006000000060000000600000E1
:1067380000710000003F0000001E00000000000083
:106748000000000000000000000000000000000041
:106758000000000000FF000000FF0000001800001B
:1067680000180000001800000018000000180000C1
:1067780000180000001800000018000000000000C9
:106788000000000000000000000000000000000001
:106798000000000080C100000063000000630000EA
:1067A8000036000000360000001E0000001C00003B
:1067B800001C0000007800000070000000000000CD
:1067C80000000000000000000000000000000000C1
:1067D8000000000000060000801F0000C03F00000D
:1067E800E06600006066000060660000E066000089
:1067F800C07F0000801F00000006000000000000AD
:106808000000000000000000000000000000000080
:106818000000000000630000006300000036000074
:10682800003E0000001C0000001C0000003E0000AC
:10683800007600000063000000E300000000000094
:106848000000000000000000000000000000000040
:10685800000000008061000080610000806100008D
:10686800806100008061000080610000806100009C
:1068780080610000C07F0000C07F0000C0000000F1
:10688800C0000000C0000000000000000000000080
:1068980000000000006300000063000000630000C7
:1068A80000630000007F0000003F000000030000BC
:1068B80000030000000300000003000000000000C7
:1068C80000000000000000000000000000000000C0
:1068D800000000001863000018630000186300003F
:1068E80018630000186300001863000018630000B4
:1068F80018630000F87F0000F87F00000000000027
:10690800000000000000000000000000000000007F
:1069180000000000186300001863000018630000FE
:106928001863000018630000186300001863000073
:1069380018630000FC7F0000FC7F000004000000DA
:106948000400000004000000000000000000000037
:106958000000000000F0000000F80000001800002F
:10696800001F0000801F0000C0190000C0180000B0
:10697800C0190000801F0000001F00000000000078
:1069880000000000000000000000000000000000FF
:10699800000000003060000030600000306000003F
:1069A800307E0000307F000030630000306300005C
:1069B80030630000307F0000307E000000000000DF
:1069C80000000000000000000000000000000000BF
:1069D800000000000060000000600000006000008F
:1069E800007E0000007F000000630000806300005C
:1069F80000630000007F0000007E0000000000002F
:106A0800000000000000000000000000000000007E
:106A180000000000007C0000007E0000004700002D
:106A280000030000007F0000007F0000000300005A
:106A380000470000007E0000007C0000000000000D
:106A4800000000000000000000000000000000003E
:106A580000000000F0610000F86300001C670000FF
:106A68000C6600000C7E00000C7E00000C66000026
:106A78001C670000F8630000F061000000000000DF
:106A880000000000000000000000000000000000FE
:106A980000000000003F0000007F000000630000CD
:106AA80000630000003F0000003F000000330000CA
:106AB8000073000000630000006300000000000095
:106AC80000000000000000000000000000000000BE
:106AD80000000000000000000000000000000000AE
:106AE800007C0000007E000000060000003E000060
:106AF80000660000007E0000007E0000000000002C
:106B0800000000000000000000000000000000007D
:106B1800000E0000003E0000007000000060000051
:106B2800007E0000007F000000630000006300009A
:106B380000630000007E0000003C00000000000030
:106B4800000000000000000000000000000000003D
:106B5800000000000000000000000000000000002D
:106B6800007C0000007E000000660000007C000041
:106B780000660000007E0000007C000000000000AD
:106B880000000000000000000000000000000000FD
:106B980000000000000000000000000000000000ED
:106BA800007800000078000000600000006000002D
:106BB80000600000006000000060000000000000AD
:106BC80000000000000000000000000000000000BD
:106BD80000000000000000000000000000000000AD
:106BE800001F0000003F00000033000000330000D9
:106BF8000063000080FF000080FF000080C10000EB
:106C080080C1000080C100000000000000000000FA
:106C1800000000000000000000000000000000006C
:106C2800003C0000007E000000660000007E0000BE
:106C380000600000007E0000003E00000000000030
:106C4800000000000000000000000000000000003C
:106C5800000000000000000000000000000000002C
:106C680060660000E0660000C03F0000C03F000012
:106C7800E07600006066000060660000000000002A
:106C880000000000000000000000000000000000FC
:106C980000000000000000000000000000000000EC
:106CA80000780000007C0000000C00000078000064
:106CB800000C000000FC000000F8000000000000CC
:106CC80000000000000000000000000000000000BC
:106CD80000000000000000000000000000000000AC
:106CE8000063000000670000006F0000007B0000E8
:106CF800007B00000073000000630000000000003B
:106D0800000000000000000000000000000000007B
:106D18000022000000360000001C000000000000F7
:106D28000063000000670000006F0000007B0000A7
:106D3800007B0000007300000063000000000000FA
:106D4800000000000000000000000000000000003B
:106D5800000000000000000000000000000000002B
:106D680000660000006E0000007C0000007C00004F
:106D7800006E0000006600000066000000000000D1
:106D880000000000000000000000000000000000FB
:106D980000000000000000000000000000000000EB
:106DA800003E0000003E00000036000000360000F3
:106DB8000076000000E6000000C2000000000000AD
:106DC80000000000000000000000000000000000BB
:106DD80000000000000000000000000000000000AB
:106DE800C0710000C0790000C0790000406B00004D
:106DF800606E0000606E0000604600000000000049
:106E0800000000000000000000000000000000007A
:106E1800000000000000000000000000000000006A
:106E28000063000000630000007F0000007F000096
:106E38000063000000630000006300000000000021
:106E4800000000000000000000000000000000003A
:106E5800000000000000000000000000000000002A
:106E6800003C0000007F0000006300000063000099
:106E780000630000007E0000003C000000000000ED
:106E880000000000000000000000000000000000FA
:106E980000000000000000000000000000000000EA
:106EA800007E0000007F0000006300000063000017
:106EB80000630000006300000063000000000000A1
:106EC80000000000000000000000000000000000BA
:106ED80000000000000000000000000000000000AA
:106EE800006E0000007F00000063000000630000E7
:106EF80000630000007E0000007E000000600000CB
:106F080000600000006000000000000000000000B9
:106F18000000000000000000000000000000000069
:106F2800003C0000007C00000064000000600000DD
:106F380000640000007C0000003C0000000000002D
:106F48000000000000000000000000000000000039
:106F58000000000000000000000000000000000029
:106F680000FC000000FC00000030000000300000C1
:106F78000030000000300000003000000000000079
:106F880000000000000000000000000000000000F9
:106F980000000000000000000000000000000000E9
:106FA80000C600000066000000660000006C0000DB
:106FB800003C0000003C0000001800000018000021
:106FC8000038000000300000000000000000000051
:106FD80000040000000C0000000C0000000C000081
:106FE800001F0000C07F0000C06C0000C06C0000E3
:106FF800C06C0000C07F0000003F0000000C0000D3
:10700800000C0000000C0000000000000000000060
:107018000000000000000000000000000000000068
:1070280000660000006C0000003C00000038000012
:10703800003C0000006C000000C6000000000000DA
:107048000000000000000000000000000000000038
:107058000000000000000000000000000000000028
:10706800006300000063000000630000006300008C
:1070780000630000807F0000807F00008001000026
:1070880080010000800100000000000000000000F6
:1070980000000000000000000000000000000000E8
:1070A80000C6000000C6000000E60000007E0000E8
:1070B800007E00000006000000060000000000003E
:1070C80000000000000000000000000000000000B8
:1070D80000000000000000000000000000000000A8
:1070E8006066000060660000606600006066000080
:1070F80060660000E07F0000E07F00000000000004
:107108000000000000000000000000000000000077
:107118000000000000000000000000000000000067
:10712800606600006066000060660000606600003F
:1071380060660000F07F0000F07F00001000000093
:107148001000000010000000000000000000000017
:107158000000000000000000000000000000000027
:1071680000F0000000F00000003E0000003F0000BA
:1071780080330000003F0000003E000000000000D7
:1071880000000000000000000000000000000000F7
:1071980000000000000000000000000000000000E7
:1071A800C0600000C0600000C07C0000C07E00001D
:1071B800C0660000C07E0000C07C00000000000027
:1071C80000000000000000000000000000000000B7
:1071D80000000000000000000000000000000000A7
:1071E8000060000000600000007C0000007E0000DD
:1071F80000670000007E0000007C00000000000026
:107208000000000000000000000000000000000076
:107218000000000000000000000000000000000066
:1072280000780000007C0000000C0000007C0000DA
:10723800000C0000007C0000007800000000000046
:107248000000000000000000000000000000000036
:107258000000000000000000000000000000000026
:10726800C0630000E06F0000607E0000607C0000EA
:10727800606E0000E0670000C063000000000000CE
:1072880000000000000000000000000000000000F6
:1072980000000000000000000000000000000000E6
:1072A800003E0000007E000000660000007E000036
:1072B800003E0000006600000066000000000000BC
:1072C8000000000000000000000000000F01809690
:1072D8001180FFB103012C2DB203012C2DB306013F
:1072E8002C2D012C2DB40107C003A20284C101C5B5
:1072F800C2020A00C3028A2AC4028AEEC5010E200D
:10730800003601A03A010500022A040000007F2B84
:10731800040000007F00000004E010021C07123780
:1073280032292D29252B3900010310E110031D07EF
:10733800062E2C292D2E2E373F0000021013800A0E
:107348002980640025642E25303164002020000047
:10735800232D302B2000686C4C0065666745464736
:1073680000303132333435363738394142434445B9
:107378004600303132333435363738396162636428
:047388006566000036
:04738C0031010008C3
:047390000D010008E3
:107394000024F40001070000D0E0E1EEF2E0000078
:1073A4000000000000000000C8EDE8F6E8E0EBE8AB
:1073B400E7E0F6E8FF000000CDE0F1F2F0EEE9EAE4
:1073C400E800000000000000C7E0EFF0E0E2EAE0BF
:1073D40020EBE5EDF2FB0000D1F2E0F0F20000005A
:1073E4000000000000000000CFE0F3E7E000000030
:1073F4000000000000000000D1F2EEEF00000000E9
:107404000000000000000000D1E1F0EEF1203100A6
:107414000000000000000000D1E1F0EEF120320095
:107424000000000000000000D1E1F0EEF120330084
:107434000000000000000000D1E1F0EEF120340073
:1074440000000000000000007420B9312C20F13A43
:1074540000000000000000007420B9322C20F13A32
:1074640000000000000000005420B9312C20B0D1ED
:107474003A000000000000005420B9322C20B0D1A2
:107484003A000000000000004C20EFE0EAE5F2E0E2
:107494002C20EC3A000000007420F6E8EAEBE02C23
:1074A40020F13A00000000009AF9794433335E4435
:1074B4000000C0400000E04000000041000018410E
:1074C400C4E0000000000000000000000000000014
:1074D400CDE5F20000000000000000000000000004
:1074E400010000001000000011100000D43A000850
:1074F400F4390008680100200000000000000000CA
:107504000000000000000000000000000000000077
:107514000000000000000000000000000000000067
:107524000000000000000000000000000000000057
:107534000000000000000000000000000000000047
:107544000000000000000000000000000000000037
:0875540000000000000000002F
:04000005080030A916
:00000001FF
